:100000000C9452010C947A010C947A010C947A01AC
:100010000C947A010C947A010C947A010C947A0174
:100020000C947A010C947A010C947A010C947A0164
:100030000C947A010C947A010C947A010C947A0154
:100040000C940C060C947A010C94DA050C94B4050B
:100050000C947A010C947A010C947A010C947A0134
:100060000C947A010C947A01000000000000005FFB
:1000700000000007000700147F147F14242A7F2A41
:10008000122313086462364955225000050300000C
:10009000001C2241000041221C0014083E081408E4
:1000A000083E0808005030000008080808080060F2
:1000B00060000020100804023E5149453E00427F86
:1000C000400042615149462141454B311814127F8D
:1000D0001027454545393C4A494930017109050316
:1000E0003649494936064949291E0036360000007E
:1000F0005636000008142241001414141414004150
:100100002214080201510906324979413E7E11113B
:10011000117E7F494949363E414141227F4141227A
:100120001C7F494949417F090909013E4149497AF2
:100130007F0808087F00417F41002040413F017F48
:10014000081422417F404040407F020C027F7F0420
:1001500008107F3E4141413E7F090909063E415159
:10016000215E7F09192946464949493101017F012C
:10017000013F4040403F1F2040201F3F4038403F4C
:100180006314081463070870080761514945430068
:100190007F41410002040810200041417F00040219
:1001A0000102044040404040000102040020545439
:1001B00054787F48444438384444442038444448C0
:1001C0007F3854545418087E0901020C5252523E92
:1001D0007F0804047800447D40002040443D007FB7
:1001E0001028440000417F40007C041804787C08FB
:1001F00004047838444444387C1414140808141453
:10020000187C7C080404084854545420043F44409B
:10021000203C4040207C1C2040201C3C4030403C86
:1002200044281028440C5050503C4464544C440022
:100230000836410000007F00000041360800100829
:100240000810080000000000000000002400270043
:100250002A0000000000250028002B0000000000FC
:1002600023002600290004040404040404040202F8
:100270000202020203030303030301020408102025
:100280004080010204081020010204081020000030
:100290000008000201000003040700000000000045
:1002A0000000560611241FBECFEFD8E0DEBFCDBF41
:1002B00011E0A0E0B1E0EAE5FFE102C005900D9297
:1002C000AE3CB107D9F726E0AEECB1E001C01D921B
:1002D000A63AB207E1F711E0C2E5D1E004C02197E8
:1002E000FE010E94A00FC135D107C9F70E949506F3
:1002F0000C94AB0F0C940000CF92DF92EF92FF9220
:100300000F931F93CF93DF936C017A018B01C0E0B1
:10031000D0E0CE15DF0581F0D8016D918D01D601B9
:10032000ED91FC910190F081E02DC6010995892B9A
:1003300011F02196EECF7E01C701DF91CF911F9181
:100340000F91FF90EF90DF90CF900895FC01538DB7
:10035000448D252F30E0842F90E0821B930B54179F
:1003600010F0CF96089501970895FC01918D828D2C
:10037000981761F0828DDF01A80FB11D5D968C91F9
:10038000928D9F5F9F73928F90E008958FEF9FEF04
:100390000895FC01918D828D981731F0828DE80FC0
:1003A000F11D858D90E008958FEF9FEF0895FC017A
:1003B000918D228D892F90E0805C9F4F821B910947
:1003C0008F73992708958BEB95E00E94D70121E068
:1003D000892B09F420E0822F0895FC01848DDF0130
:1003E000A80FB11DA35ABF4F2C91848D90E00196A8
:1003F0008F739927848FA689B7892C93A089B18997
:100400008C91837080648C93938D848D981306C037
:100410000288F389E02D80818F7D80830895EF929B
:10042000FF920F931F93CF93DF93EC0181E0888FAE
:100430009B8D8C8D981305C0E889F989808185FD95
:1004400026C0F62E0B8D10E00F5F1F4F0F73112784
:10045000E02E8C8DE8120CC00FB607FCFACFE889AD
:10046000F989808185FFF5CFCE010E94ED01F1CFA2
:100470008B8DFE01E80FF11DE35AFF4FF0829FB70D
:10048000F8940B8FEA89FB89808180620AC09FB74C
:10049000F894EE89FF896083E889F9898081837007
:1004A000806480839FBF81E090E0DF91CF911F91B6
:1004B0000F91FF90EF900895CF93DF93EC01888D1B
:1004C0008823C9F0EA89FB89808185FD05C0A88958
:1004D000B9898C9186FD0FC00FB607FCF5CF8081DE
:1004E00085FFF2CFA889B9898C9185FFEDCFCE0128
:1004F0000E94ED01E7CFDF91CF91089580E090E079
:10050000892B29F00E94E30181110C9400000895C9
:10051000833081F028F4813099F08230A1F0089581
:100520008730A9F08830B9F08430D1F48091800010
:100530008F7D03C0809180008F7780938000089525
:1005400084B58F7702C084B58F7D84BD0895809176
:10055000B0008F7703C08091B0008F7D8093B00092
:1005600008951F93CF93DF93282F30E0F901E257CE
:10057000FD4F8491F901E658FD4FD491F901EA59F4
:10058000FD4FC491CC23C1F0162F81110E94880227
:10059000EC2FF0E0EE0FFF1FEE5AFD4FA591B49146
:1005A0009FB7F894111104C08C91D095D82302C044
:1005B000EC91DE2BDC939FBFDF91CF911F910895CB
:1005C000CF93DF9390E0FC01E658FD4F2491FC01AE
:1005D000EA59FD4F8491882361F190E0880F991FBB
:1005E000FC01E85BFD4FC591D491FC01EE5AFD4F33
:1005F000A591B491611109C09FB7F89488812095A5
:1006000082238883EC912E230BC0623061F49FB764
:10061000F8948881322F309583238883EC912E2B98
:100620002C939FBF06C08FB7F894E8812E2B2883A8
:100630008FBFDF91CF9108958E3008F08E50877074
:10064000806480937C0080917A00806480937A003B
:1006500080917A0086FDFCCF80917800909179009E
:1006600008953FB7F8948091D3019091D401A0915F
:10067000D501B091D60126B5A89B05C02F3F19F032
:100680000196A11DB11D3FBFBA2FA92F982F882712
:10069000820F911DA11DB11DBC01CD0142E0660F6D
:1006A000771F881F991F4A95D1F708958F929F92BF
:1006B000AF92BF92CF92DF92EF92FF926B017C01DB
:1006C0000E9431034B015C01C114D104E104F10427
:1006D000F1F00E943103DC01CB0188199909AA09C4
:1006E000BB09883E9340A105B10570F321E0C21A11
:1006F000D108E108F10888EE880E83E0981EA11C5D
:10070000B11CC114D104E104F10419F7DDCFFF904D
:10071000EF90DF90CF90BF90AF909F908F90089513
:10072000089580E090E008950E94A60FEF92FF9256
:100730000F931F93CF93DF93EC01042F8E810E94C0
:10074000B10260E088850E94B102FC80ED8018E073
:10075000602F661F6627661F8E2D0E94B102000F54
:1007600061E08F2D0E94B10260E08F2D0E94B102E6
:10077000115071F761E08885DF91CF911F910F9142
:10078000FF90EF900C94B102CF93DF93C8E5D6E0D1
:100790001C86282F30E09B8569E3969F612D1124EC
:1007A000669570E06F5F7F4FC9010E94560F8D877D
:1007B00040E860E0CE010E9496034D85406460E011
:1007C000CE01DF91CF910C9496036115710579F0FC
:1007D000FB0101900020E9F73197AF01461B570B51
:1007E000DC01ED91FC910280F381E02D099480E021
:1007F00090E008952F923F924F925F926F927F9276
:100800008F929F92AF92BF92CF92DF92EF92FF9220
:100810000F931F93CF93DF93CDB7DEB7A2970FB699
:10082000F894DEBF0FBECDBF8C014A015B01D22E12
:100830009A01AB01C501B4010E943C0F882319F055
:1008400063E271E027C024013501E89477F82FEFC7
:100850003FEF4FE75FE7C301B2010E943C0F8111F8
:100860000DC02FEF3FEF4FE75FE7C301B2010E94DA
:100870002C0D18161CF467E271E00CC02FEF3FEF4F
:100880004FE75FE4C501B4010E94840E181634F4EA
:100890006BE271E0C8010E94E503BDC02FEF3FEF9E
:1008A0004FE75FECC501B4010E942C0D87FDF0CF2E
:1008B00020E030E0A901C501B4010E942C0D87FFA2
:1008C0000FC0D801ED91FC910190F081E02D6DE217
:1008D000C80109951C01B7FAB094B7F8B09402C0EA
:1008E000212C312CF12C60E070E080E09FE3DF14DC
:1008F00041F020E030E040E251E40E94310DF394F9
:10090000F6CFA50194010E94C00C4B015C010E942E
:10091000A30D562E672E782EC92E19A2262F372FFB
:10092000482F592F7E01B1E2EB0EF11CEAA24F2CA9
:10093000CA01B9012AE030E040E050E00E946A0FAD
:10094000605DF70162937F01211531054105510575
:1009500079F7BF01C8010E94E5037101E80EF91E95
:10096000DD2009F457C0652D762D872D9C2D0E9422
:10097000D20D9B01AC01C501B4010E94BF0C4B011B
:100980005C01D801ED91FC910190F081E02D6EE2C7
:10099000C8010995E80EF91E20E030E040E251E47C
:1009A000C501B4010E94890E4B015C010E94A30D98
:1009B0009B0140E050E019A22AA0342C562E632E51
:1009C000742EC52ECA01B9012AE030E040E050E0A3
:1009D0000E946A0F605DF10162931F0121153105CC
:1009E0004105510579F7BF01C8010E94E503E80EF2
:1009F000F91E652D762D872D9C2D0E94D20D9B0111
:100A0000AC01C501B4010E94BF0C4B015C01DA943A
:100A1000D110C2CFC701A2960FB6F894DEBF0FBEA9
:100A2000CDBFDF91CF911F910F91FF90EF90DF909D
:100A3000CF90BF90AF909F908F907F906F905F907E
:100A40004F903F902F900895CF93DF93AB01BC015F
:100A500022E08BEB95E00E94FA03EC016FE271E07B
:100A60008BEB95E00E94E5038C0F9D1FDF91CF91EA
:100A700008950C94E503CF92DF92EF92FF920F93CB
:100A80001F93CF93DF9300D000D01F92CDB7DEB776
:100A900067FD57C07C01862F90E0603260F0809740
:100AA00025E0289FB001299F700D112468597F4FC0
:100AB00045E050E00FC0FC013796EE0FFF1FEE0D32
:100AC000FF1D008111810115110559F445E050E029
:100AD00068E670E0CE0101960E94B60C8E010F5FB1
:100AE0001F4F680185E0C80ED11CF80141918F01AC
:100AF00061E0C7010E9496030C151D05B1F740E0A7
:100B000061E0C7010E949603F701848590E0069694
:100B1000628570E00E94560F8487811115C025857B
:100B200030E02F5F3F4F938569E3969F612D11243D
:100B3000669570E06F5F7F4FC9010E94560F8587F1
:100B400003C080E090E002C081E090E00F900F9041
:100B50000F900F900F90DF91CF911F910F91FF9009
:100B6000EF90DF90CF9008951F920F920FB60F92E3
:100B700011242F933F934F935F936F937F938F93A2
:100B80009F93AF93BF93EF93FF938BEB95E00E94FE
:100B9000ED01FF91EF91BF91AF919F918F917F9167
:100BA0006F915F914F913F912F910F900FBE0F90DA
:100BB0001F9018951F920F920FB60F9211242F932A
:100BC0008F939F93EF93FF93E091CB05F091CC052A
:100BD0008081E091D105F091D20582FD12C0908113
:100BE0008091D4058F5F8F732091D505821751F0C6
:100BF000E091D405F0E0E554FA4F958F8093D40549
:100C000001C08081FF91EF919F918F912F910F9063
:100C10000FBE0F901F9018951F920F920FB60F9254
:100C200011242F933F938F939F93AF93BF93809102
:100C3000CF019091D001A091D101B091D20130911A
:100C4000CE0123E0230F2D3720F40196A11DB11D05
:100C500005C026E8230F0296A11DB11D2093CE01E9
:100C60008093CF019093D001A093D101B093D20192
:100C70008091D3019091D401A091D501B091D6017A
:100C80000196A11DB11D8093D3019093D401A0932F
:100C9000D501B093D601BF91AF919F918F913F91B4
:100CA0002F910F900FBE0F901F901895EBEBF5E072
:100CB0001382128288EE93E0A0E0B0E084839583F3
:100CC000A683B78389E091E09183808385EC90E0EF
:100CD0009587848784EC90E09787868780EC90E006
:100CE000918B808B81EC90E0938B828B82EC90E0F7
:100CF000958B848B86EC90E0978B868B118E128E71
:100D0000138E148EE8E5F6E0138212828BE191E0F7
:100D10009183808383E0848384E0858385E0868378
:100D200086E0878387E080870895789484B5826021
:100D300084BD84B5816084BD85B5826085BD85B57F
:100D4000816085BD80916E00816080936E001092FD
:100D50008100809181008260809381008091810078
:100D60008160809381008091800081608093800009
:100D70008091B10084608093B1008091B000816067
:100D80008093B00080917A00846080937A00809193
:100D90007A00826080937A0080917A0081608093EB
:100DA0007A0080917A00806880937A001092C10066
:100DB000E091CB05F091CC0582E08083E091C705FE
:100DC000F091C8051082E091C905F091CA058FEC39
:100DD00080831092D305E091CF05F091D00586E095
:100DE0008083E091CD05F091CE0580818061808384
:100DF000E091CD05F091CE05808188608083E091FF
:100E0000CD05F091CE05808180688083E091CD058D
:100E1000F091CE0580818F7D808360E08EE00E941E
:100E2000E00284E58093620680E38093630610927B
:100E30006106109264061092650680E4E6E6F6E02C
:100E4000DF011D928A95E9F761E080915C060E94BE
:100E5000E00261E080915D060E94E00261E0809125
:100E60005E060E94E00261E080915F060E94E0025F
:100E700061E0809160060E94E00261E080915F067F
:100E80000E94B10261E0809160060E94B10260E0C0
:100E900080915F060E94B10264E670E080E090E01D
:100EA0000E94560361E080915F060E94B10241E218
:100EB00060E088E596E00E94960343E160E088E503
:100EC00096E00E94960380916106813041F440EEE5
:100ED00060E088E596E00E94960345E001C042ECA0
:100EE00060E088E596E00E94960340E260E088E5D5
:100EF00096E00E94960349E060E088E596E00E9453
:100F0000960380E00E94C403C0E0D0E090916206A6
:100F100080916306869586958695989FC0011124D9
:100F2000C817D90740F440E061E088E596E00E94E8
:100F300096032196EBCF80E00E94C40348E060E076
:100F400088E596E00E9496034CE060E088E596E034
:100F50000E94960364E670E080E090E00E945603F1
:100F600040E860E088E596E00E94960340E460E097
:100F700088E596E00E94960361E088E00E94E00226
:100F800061E082E00E94E00261E08BE00E94E0020A
:100F900061E08CE00E94E00280E091E090936706BF
:100FA0008093660662E085E00E94E00257EC252E01
:100FB00052E0352E07EB13E067EAC62E64E0D62E2A
:100FC00077E9E72E75E0F72EE1EAF2E08491EDE8AB
:100FD000F2E0C491E9E7F2E0D491DD2379F08111E8
:100FE0000E948802ED2FF0E0EE0FFF1FE45AFD4F44
:100FF000A591B4918C91C82309F054C487EDA82E13
:1010000081E0B82EE5018EE00E941C03BC01990F1F
:10101000880B990B0E94D40D6993799389939993C6
:1010200061E070E080E090E00E9456032C163D06DF
:1010300051F7412C512C3201D5012D913D914D910B
:101040005D915D0160E070E88FEF93E40E94BF0C5A
:1010500020E030E040E652E40E94890E20E030ECCF
:101060004FE754E40E94310D9B01AC010E94890EB0
:101070009B01AC01C301B2010E94C00C2B013C01D9
:10108000B7ECAB16B2E0BB06B9F620E030E040E7C3
:1010900052E40E94310D0E94FC0E6093AF057093E4
:1010A000B0058093B1059093B20580E00E94C4031F
:1010B00062E371E088E596E00E9439054091AF0552
:1010C0005091B0056091B1057091B20522E088E5BC
:1010D00096E00E94FA0367E371E088E596E00E94DB
:1010E00039058091AF059091B005A091B105B091FF
:1010F000B2058093B3059093B405A093B505B09362
:10110000B6056CE371E08BEB95E00E9439056091C8
:10111000B3057091B4058091B5059091B6050E9414
:101120002405C0E0D0E04090AF055090B00560903D
:10113000B1057090B20520E030E048E551E4C3010C
:10114000B2010E94840E181634F18090B705909079
:10115000B805A090B905B090BA0520E030E040EAAB
:1011600051E4C501B4010E94840E1816A4F020E0D9
:1011700030E048E551ECC301B2010E942C0D87FD1F
:101180000AC020E030E040EA51ECC501B4010E9401
:101190002C0D87FF02C061E001C060E088E00E9482
:1011A000B102209709F454C08FE00E941C03BC01D7
:1011B000990F880B990B0E94D40D9B01AC0160E044
:1011C00070E88FEF93E40E94BF0C20E030E044E42D
:1011D00052E40E94890E20E030EC4FE754E40E9474
:1011E000310D6093AB057093AC058093AD05909382
:1011F000AE0581E00E94C40362E371E088E596E0F9
:101200000E9439054091AB055091AC056091AD0548
:101210007091AE0522E088E596E00E94FA036CE446
:1012200071E088E596E00E9439058091AB059091C8
:10123000AC05A091AD05B091AE058093B305909338
:10124000B405A093B505B093B6056EE471E085C012
:1012500037EC832E32E0932E54018FE00E941C0362
:10126000BC01990F880B990B0E94D40DF501619375
:101270007193819391935F0161E070E080E090E071
:101280000E9456030A151B0541F7412C512C3201CF
:10129000D4012D913D914D915D914D0160E070E83B
:1012A0008FEF93E40E94BF0C20E030E040E652E470
:1012B0000E94890E20E030EC4FE754E40E94310D8B
:1012C0009B01AC010E94890E9B01AC01C301B201DC
:1012D0000E94C00C2B013C0108151905C9F620E03D
:1012E00030E040E752E40E94310D0E94FC0E609312
:1012F000A7057093A8058093A9059093AA0581E09E
:101300000E94C4036EE571E088E596E00E9439050D
:101310004091A7055091A8056091A9057091AA0573
:1013200022E088E596E00E94FA0367E371E088E531
:1013300096E00E9439058091A7059091A805A0919B
:10134000A905B091AA058093B3059093B405A09325
:10135000B505B093B60563E671E08BEB95E00E94AE
:1013600039056091B3057091B4058091B5059091F0
:10137000B6050E9424054090A7055090A8056090EE
:10138000A9057090AA0520E030E048E551E4C301CA
:10139000B2010E94840E181634F18090AB05909033
:1013A000AC05A090AD05B090AE0520E030E040EA7D
:1013B00051E4C501B4010E94840E1816A4F020E087
:1013C00030E048E551ECC301B2010E942C0D87FDCD
:1013D0000AC020E030E040EA51ECC501B4010E94AF
:1013E0002C0D87FF02C061E001C060E08CE00E942C
:1013F000B102209709F454C080E10E941C03BC0193
:10140000990F880B990B0E94D40D9B01AC0160E0F1
:1014100070E88FEF93E40E94BF0C20E030E044E4DA
:1014200052E40E94890E20E030EC4FE754E40E9421
:10143000310D6093A3057093A4058093A505909347
:10144000A60582E00E94C40363E771E088E596E0A8
:101450000E9439054091A3055091A4056091A5050E
:101460007091A60522E088E596E00E94FA036CE4FC
:1014700071E088E596E00E9439058091A30590917E
:10148000A405A091A505B091A6058093B3059093FE
:10149000B405A093B505B093B60568E771E07BC0CD
:1014A00027EB822E23E0922E540180E10E941C0340
:1014B000BC01990F880B990B0E94D40DF501619323
:1014C0007193819391935F0161E070E080E090E01F
:1014D0000E945603F7EAAF16F4E0BF0631F7412C3D
:1014E000512C3201D4012D913D914D915D914D01D1
:1014F00060E070E88FEF93E40E94BF0C20E030E0E2
:1015000040E652E40E94890E20E030EC4FE754E4BC
:101510000E94310D9B01AC010E94890E9B01AC0120
:10152000C301B2010E94C00C2B013C01C814D904B4
:10153000C9F620E030E040E752E40E94310D0E94FD
:10154000FC0E4B015C0160939F057093A005809396
:10155000A1059093A20582E00E94C40363E771E0B5
:1015600088E596E00E94390522E0B501A40188E5EE
:1015700096E00E94FA0367E371E088E596E00E9436
:1015800039058092B3059092B405A092B505B0924A
:10159000B60569E871E08BEB95E00E943905609132
:1015A000B3057091B4058091B5059091B6050E9480
:1015B000240540909F055090A0056090A105709073
:1015C000A20520E030E048E551E4C301B2010E94E9
:1015D000840E181634F18090A3059090A405A09075
:1015E000A505B090A60520E030E040EA51E4C50131
:1015F000B4010E94840E1816A4F020E030E048E503
:1016000051ECC301B2010E942C0D87FD0AC020E0FD
:1016100030E040EA51ECC501B4010E942C0D87FF77
:1016200002C061E001C060E082E00E94B102CD2B07
:1016300009F454C081E10E941C03BC01990F880B7E
:10164000990B0E94D40D9B01AC0160E070E88FEF14
:1016500093E40E94BF0C20E030E044E452E40E9496
:10166000890E20E030EC4FE754E40E94310D609386
:101670009B0570939C0580939D0590939E0583E048
:101680000E94C40369E971E088E596E00E9439058B
:1016900040919B0550919C0560919D0570919E0520
:1016A00022E088E596E00E94FA036CE471E088E5A8
:1016B00096E00E94390580919B0590919C05A09130
:1016C0009D05B0919E058093B3059093B405A093BA
:1016D000B505B093B6056EE971E083C097EAA92E0F
:1016E00094E0B92EE50181E10E941C03BC01990F31
:1016F000880B990B0E94D40D6993799389939993E0
:1017000061E070E080E090E00E945603EC16FD0678
:1017100051F7412C512C3201F50121913191419128
:1017200051915F0160E070E88FEF93E40E94BF0C7D
:1017300020E030E040E652E40E94890E20E030ECE8
:101740004FE754E40E94310D9B01AC010E94890EC9
:101750009B01AC01C301B2010E94C00C2B013C01F2
:10176000EA14FB04C9F620E030E040E752E40E94AE
:10177000310D0E94FC0E609397057093980580933D
:10178000990590939A0583E00E94C40363E771E092
:1017900088E596E00E94390540919705509198059B
:1017A0006091990570919A0522E088E596E00E9483
:1017B000FA0367E371E088E596E00E9439058091BD
:1017C000970590919805A0919905B0919A058093FD
:1017D000B3059093B405A093B505B093B6056EEA32
:1017E00071E08BEB95E00E9439056091B305709133
:1017F000B4058091B5059091B6050E94240567E86F
:1018000071E08BEB95E00E94E5036FE271E08BEBFA
:1018100095E00E94E50340909705509098056090F0
:10182000990570909A0520E030E048E551E4C30145
:10183000B2010E94840E181634F180909B0590909E
:101840009C05A0909D05B0909E0520E030E040EA08
:1018500051E4C501B4010E94840E1816A4F020E0E2
:1018600030E048E551ECC301B2010E942C0D87FD28
:101870000AC020E030E040EA51ECC501B4010E940A
:101880002C0D87FF02C061E001C060E08BE00E9488
:10189000B10264EF71E080E090E00E9456030E9484
:1018A0007E0292CB8EE00E941C03BC01990F880B34
:1018B000990B0E94D40D9B01AC0160E070E88FEFA2
:1018C00093E40E94BF0C20E030E044E452E40E9424
:1018D000890E20E030EC4FE754E40E94310D609314
:1018E000B7057093B8058093B9059093BA0580E069
:1018F0000E94C40362E371E088E596E00E94390526
:101900004091B7055091B8056091B9057091BA053D
:1019100022E088E596E00E94FA036CE471E088E535
:1019200096E00E9439058091B7059091B805A09185
:10193000B905B091BA058093B3059093B405A0930F
:10194000B505B093B6056EEB71E08BEB95E00E94A8
:1019500039056091B3057091B4058091B5059091FA
:10196000B6050E942405C1E0D0E0DDCBFB01DC011F
:1019700002C005900D9241505040D8F7089550583C
:10198000BB27AA270E94D70C0C944A0E0E943C0E3B
:1019900038F00E94430E20F039F49F3F19F426F4EA
:1019A0000C94390E0EF4E095E7FB0C94330EE92FFE
:1019B0000E945B0E58F3BA176207730784079507F6
:1019C00020F079F4A6F50C947D0E0EF4E0950B2E24
:1019D000BA2FA02D0B01B90190010C01CA01A00181
:1019E0001124FF27591B99F0593F50F4503E68F1DC
:1019F0001A16F040A22F232F342F4427585FF3CF1D
:101A0000469537952795A795F0405395C9F77EF4ED
:101A10001F16BA0B620B730B840BBAF09150A1F036
:101A2000FF0FBB1F661F771F881FC2F70EC0BA0FBC
:101A3000621F731F841F48F4879577956795B79544
:101A4000F7959E3F08F0B0CF9395880F08F099273F
:101A5000EE0F9795879508950E940F0E08F481E088
:101A600008950E94450D0C944A0E0E94430E58F0B2
:101A70000E943C0E40F029F45F3F29F00C94330E95
:101A800051110C947E0E0C94390E0E945B0E68F37B
:101A90009923B1F3552391F3951B550BBB27AA2727
:101AA00062177307840738F09F5F5F4F220F331F61
:101AB000441FAA1FA9F335D00E2E3AF0E0E832D029
:101AC00091505040E695001CCAF72BD0FE2F29D02C
:101AD000660F771F881FBB1F261737074807AB07FE
:101AE000B0E809F0BB0B802DBF01FF2793585F4F73
:101AF0003AF09E3F510578F00C94330E0C947E0E14
:101B00005F3FE4F3983ED4F3869577956795B79554
:101B1000F7959F5FC9F7880F911D9695879597F95F
:101B20000895E1E0660F771F881FBB1F62177307D8
:101B30008407BA0720F0621B730B840BBA0BEE1FED
:101B400088F7E09508950E94630E88F09F5798F0FB
:101B5000B92F9927B751B0F0E1F0660F771F881FB2
:101B6000991F1AF0BA95C9F714C0B13091F00E94CC
:101B70007D0EB1E008950C947D0E672F782F882795
:101B8000B85F39F0B93FCCF3869577956795B395F3
:101B9000D9F73EF490958095709561957F4F8F4F62
:101BA0009F4F0895E89409C097FB3EF49095809567
:101BB000709561957F4F8F4F9F4F9923A9F0F92F13
:101BC00096E9BB279395F695879577956795B79591
:101BD000F111F8CFFAF4BB0F11F460FF1BC06F5F77
:101BE0007F4F8F4F9F4F16C0882311F096E911C089
:101BF000772321F09EE8872F762F05C0662371F0AA
:101C000096E8862F70E060E02AF09A95660F771FBD
:101C1000881FDAF7880F9695879597F90895990F99
:101C20000008550FAA0BE0E8FEEF16161706E807A6
:101C3000F907C0F012161306E407F50798F0621BC7
:101C4000730B840B950B39F40A2661F0232B242B9C
:101C5000252B21F408950A2609F4A140A6958FEFBB
:101C6000811D811D089597F99F6780E870E060E00D
:101C700008959FEF80EC089500240A941616170625
:101C800018060906089500240A941216130614066D
:101C900005060895092E0394000C11F4882352F0D0
:101CA000BB0F40F4BF2B11F460FF04C06F5F7F4F88
:101CB0008F4F9F4F089557FD9058440F551F59F06F
:101CC0005F3F71F04795880F97FB991F61F09F3F29
:101CD00079F087950895121613061406551FF2CF52
:101CE0004695F1DF08C0161617061806991FF1CFA2
:101CF00086957105610508940895E894BB276627C9
:101D00007727CB0197F908950E940F0E08F48FEF03
:101D100008950E949C0E0C944A0E0E943C0E38F0CE
:101D20000E94430E20F0952311F00C94330E0C9476
:101D3000390E11240C947E0E0E945B0E70F3959F59
:101D4000C1F3950F50E0551F629FF001729FBB27B2
:101D5000F00DB11D639FAA27F00DB11DAA1F649F4E
:101D60006627B00DA11D661F829F2227B00DA11D01
:101D7000621F739FB00DA11D621F839FA00D611D87
:101D8000221F749F3327A00D611D231F849F600DA8
:101D9000211D822F762F6A2F11249F5750409AF0D1
:101DA000F1F088234AF0EE0FFF1FBB1F661F771F5D
:101DB000881F91505040A9F79E3F510580F00C9428
:101DC000330E0C947E0E5F3FE4F3983ED4F3869579
:101DD00077956795B795F795E7959F5FC1F7FE2BC8
:101DE000880F911D9695879597F9089519F416F423
:101DF0000C94390E0C94410F0E94630EB8F3992392
:101E0000C9F3B6F39F57550B87FF0E944F0F00246D
:101E1000A0E640EA900180585695979528F4805C9A
:101E2000660F771F881F20F026173707480730F402
:101E3000621B730B840B202931294A2BA69517941A
:101E40000794202531254A2758F7660F771F881FEA
:101E500020F026173707480730F4620B730B840B0A
:101E6000200D311D411DA09581F7B901842F915896
:101E7000880F9695879508950E940F0E880B990BF1
:101E800008959F3F31F0915020F48795779567959D
:101E9000B795880F911D9695879597F9089591505C
:101EA0005040660F771F881FD2F7089597FB072EC3
:101EB00016F4009407D077FD09D00E948C0F07FC20
:101EC00005D03EF4909581959F4F0895709561954A
:101ED0007F4F0895A1E21A2EAA1BBB1BFD010DC066
:101EE000AA1FBB1FEE1FFF1FA217B307E407F507CA
:101EF00020F0A21BB30BE40BF50B661F771F881FA6
:101F0000991F1A9469F760957095809590959B013B
:101F1000AC01BD01CF010895AA1BBB1B51E107C055
:101F2000AA1FBB1FA617B70710F0A61BB70B881F69
:101F3000991F5A95A9F780959095BC01CD010895F8
:101F4000EE0FFF1F0590F491E02D099481E090E0E1
:0A1F5000F8940C94AB0FF894FFCF47
:101F5A001034303410000000000F027C01A6015C2E
:101F6A0002D701B501C901000000003B057C0191BF
:101F7A000390036E616E00696E66006F7666000DEF
:101F8A000A0056313A200056726D7300566F6C740F
:101F9A006167655B41435D30313A20005600566FF8
:101FAA006C746167655B44435D30323A2000563297
:101FBA003A2000566F6C746167655B41435D30324D
:101FCA003A200056333A2000566F6C746167655B9D
:101FDA0044435D3033203A2000566F6C7461676564
:101FEA005B41435D30333A200056343A2000566F45
:101FFA006C746167655B44435D30343A2000566F08
:10200A006C746167655B41435D30343A2000566FFA
:0E201A006C746167655B44435D30313A2000B1
:107E0000112484B714BE81FFF0D085E080938100F7
:107E100082E08093C00088E18093C10086E0809377
:107E2000C20080E18093C4008EE0C9D0259A86E02C
:107E300020E33CEF91E0309385002093840096BBD3
:107E4000B09BFECF1D9AA8958150A9F7CC24DD24C4
:107E500088248394B5E0AB2EA1E19A2EF3E0BF2EE7
:107E6000A2D0813461F49FD0082FAFD0023811F036
:107E7000013811F484E001C083E08DD089C08234E0
:107E800011F484E103C0853419F485E0A6D080C0E4
:107E9000853579F488D0E82EFF2485D0082F10E0AE
:107EA000102F00270E291F29000F111F8ED06801E7
:107EB0006FC0863521F484E090D080E0DECF843638
:107EC00009F040C070D06FD0082F6DD080E0C81688
:107ED00080E7D80618F4F601B7BEE895C0E0D1E017
:107EE00062D089930C17E1F7F0E0CF16F0E7DF06D8
:107EF00018F0F601B7BEE89568D007B600FCFDCFD4
:107F0000A601A0E0B1E02C9130E011968C91119780
:107F100090E0982F8827822B932B1296FA010C0160
:107F200087BEE89511244E5F5F4FF1E0A038BF0790
:107F300051F7F601A7BEE89507B600FCFDCF97BE46
:107F4000E89526C08437B1F42ED02DD0F82E2BD052
:107F50003CD0F601EF2C8F010F5F1F4F84911BD097
:107F6000EA94F801C1F70894C11CD11CFA94CF0C13
:107F7000D11C0EC0853739F428D08EE10CD085E9AC
:107F80000AD08FE07ACF813511F488E018D01DD067
:107F900080E101D065CF982F8091C00085FFFCCF94
:107FA0009093C60008958091C00087FFFCCF809118
:107FB000C00084FD01C0A8958091C6000895E0E648
:107FC000F0E098E1908380830895EDDF803219F02E
:107FD00088E0F5DFFFCF84E1DECF1F93182FE3DFCA
:107FE0001150E9F7F2DF1F91089580E0E8DFEE27F6
:047FF000FF270994CA
:027FFE00040479
:0400000300007E007B
:00000001FF
