:100000000C9452010C947A010C947A010C947A01AC
:100010000C947A010C947A010C947A010C947A0174
:100020000C947A010C947A010C947A010C947A0164
:100030000C947A010C947A010C947A010C947A0154
:100040000C94D5050C947A010C94A3050C947D05B1
:100050000C947A010C947A010C947A010C947A0134
:100060000C947A010C947A01000000000000005FFB
:1000700000000007000700147F147F14242A7F2A41
:10008000122313086462364955225000050300000C
:10009000001C2241000041221C0014083E081408E4
:1000A000083E0808005030000008080808080060F2
:1000B00060000020100804023E5149453E00427F86
:1000C000400042615149462141454B311814127F8D
:1000D0001027454545393C4A494930017109050316
:1000E0003649494936064949291E0036360000007E
:1000F0005636000008142241001414141414004150
:100100002214080201510906324979413E7E11113B
:10011000117E7F494949363E414141227F4141227A
:100120001C7F494949417F090909013E4149497AF2
:100130007F0808087F00417F41002040413F017F48
:10014000081422417F404040407F020C027F7F0420
:1001500008107F3E4141413E7F090909063E415159
:10016000215E7F09192946464949493101017F012C
:10017000013F4040403F1F2040201F3F4038403F4C
:100180006314081463070870080761514945430068
:100190007F41410002040810200041417F00040219
:1001A0000102044040404040000102040020545439
:1001B00054787F48444438384444442038444448C0
:1001C0007F3854545418087E0901020C5252523E92
:1001D0007F0804047800447D40002040443D007FB7
:1001E0001028440000417F40007C041804787C08FB
:1001F00004047838444444387C1414140808141453
:10020000187C7C080404084854545420043F44409B
:10021000203C4040207C1C2040201C3C4030403C86
:1002200044281028440C5050503C4464544C440022
:100230000836410000007F00000041360800100829
:100240000810080000000000000000002400270043
:100250002A0000000000250028002B0000000000FC
:1002600023002600290004040404040404040202F8
:100270000202020203030303030301020408102025
:100280004080010204081020010204081020000030
:100290000008000201000003040700000000000045
:1002A00000001F0611241FBECFEFD8E0DEBFCDBF78
:1002B00011E0A0E0B1E0EEEAFCE102C005900D9291
:1002C000AA34B107D9F726E0AAE4B1E001C01D9233
:1002D000AE31B207E1F711E0C2E5D1E004C02197E9
:1002E000FE010E944A0EC135D107C9F70E945E0681
:1002F0000C94550E0C940000CF92DF92EF92FF9277
:100300000F931F93CF93DF936C017A018B01C0E0B1
:10031000D0E0CE15DF0581F0D8016D918D01D601B9
:10032000ED91FC910190F081E02DC6010995892B9A
:1003300011F02196EECF7E01C701DF91CF911F9181
:100340000F91FF90EF90DF90CF900895FC01538DB7
:10035000448D252F30E0842F90E0821B930B54179F
:1003600010F0CF96089501970895FC01918D828D2C
:10037000981761F0828DDF01A80FB11D5D968C91F9
:10038000928D9F5F9F73928F90E008958FEF9FEF04
:100390000895FC01918D828D981731F0828DE80FC0
:1003A000F11D858D90E008958FEF9FEF0895FC017A
:1003B000918D228D892F90E0805C9F4F821B910947
:1003C0008F739927089583E395E00E94D70121E078
:1003D000892B09F420E0822F0895FC01848DDF0130
:1003E000A80FB11DA35ABF4F2C91848D90E00196A8
:1003F0008F739927848FA689B7892C93A089B18997
:100400008C91837080648C93938D848D981306C037
:100410000288F389E02D80818F7D80830895EF929B
:10042000FF920F931F93CF93DF93EC0181E0888FAE
:100430009B8D8C8D981305C0E889F989808185FD95
:1004400026C0F62E0B8D10E00F5F1F4F0F73112784
:10045000E02E8C8DE8120CC00FB607FCFACFE889AD
:10046000F989808185FFF5CFCE010E94ED01F1CFA2
:100470008B8DFE01E80FF11DE35AFF4FF0829FB70D
:10048000F8940B8FEA89FB89808180620AC09FB74C
:10049000F894EE89FF896083E889F9898081837007
:1004A000806480839FBF81E090E0DF91CF911F91B6
:1004B0000F91FF90EF900895CF93DF93EC01888D1B
:1004C0008823C9F0EA89FB89808185FD05C0A88958
:1004D000B9898C9186FD0FC00FB607FCF5CF8081DE
:1004E00085FFF2CFA889B9898C9185FFEDCFCE0128
:1004F0000E94ED01E7CFDF91CF91089580E090E079
:10050000892B29F00E94E30181110C9400000895C9
:10051000833081F028F4813099F08230A1F0089581
:100520008730A9F08830B9F08430D1F48091800010
:100530008F7D03C0809180008F7780938000089525
:1005400084B58F7702C084B58F7D84BD0895809176
:10055000B0008F7703C08091B0008F7D8093B00092
:1005600008951F93CF93DF93282F30E0F901E257CE
:10057000FD4F8491F901E658FD4FD491F901EA59F4
:10058000FD4FC491CC23C1F0162F81110E94880227
:10059000EC2FF0E0EE0FFF1FEE5AFD4FA591B49146
:1005A0009FB7F894111104C08C91D095D82302C044
:1005B000EC91DE2BDC939FBFDF91CF911F910895CB
:1005C000CF93DF9390E0FC01E658FD4F2491FC01AE
:1005D000EA59FD4F8491882361F190E0880F991FBB
:1005E000FC01E85BFD4FC591D491FC01EE5AFD4F33
:1005F000A591B491611109C09FB7F89488812095A5
:1006000082238883EC912E230BC0623061F49FB764
:10061000F8948881322F309583238883EC912E2B98
:100620002C939FBF06C08FB7F894E8812E2B2883A8
:100630008FBFDF91CF9108958E3008F08E50877074
:10064000806480937C0080917A00806480937A003B
:1006500080917A0086FDFCCF80917800909179009E
:1006600008953FB7F89480914F0190915001A09167
:100670005101B091520126B5A89B05C02F3F19F03A
:100680000196A11DB11D3FBFBA2FA92F982F882712
:10069000820F911DA11DB11DBC01CD0142E0660F6D
:1006A000771F881F991F4A95D1F708958F929F92BF
:1006B000AF92BF92CF92DF92EF92FF926B017C01DB
:1006C0000E9431034B015C01C114D104E104F10427
:1006D000F1F00E943103DC01CB0188199909AA09C4
:1006E000BB09883E9340A105B10570F321E0C21A11
:1006F000D108E108F10888EE880E83E0981EA11C5D
:10070000B11CC114D104E104F10419F7DDCFFF904D
:10071000EF90DF90CF90BF90AF909F908F90089513
:10072000089580E090E00895009769F0FC01019041
:100730000020E9F73197AF01481B590BBC0180ED50
:1007400095E00C947C0180E090E008950C94940373
:10075000EF92FF920F931F93CF93DF93EC01042F3F
:100760008E810E94B10260E088850E94B102FC8007
:10077000ED8018E0602F661F6627661F8E2D0E9491
:10078000B102000F61E08F2D0E94B10260E08F2D59
:100790000E94B102115071F761E08885DF91CF911D
:1007A0001F910F91FF90EF900C94B102CF93DF93C4
:1007B000C0EDD5E01C86282F30E09B8569E3969F2D
:1007C000612D1124669570E06F5F7F4FC9010E9413
:1007D000000E8D8740E860E0CE010E94A8034D85A1
:1007E000406460E0CE01DF91CF910C94A8030E9499
:1007F000500ECF92DF92EF92FF920F931F93CF9301
:10080000DF9300D000D01F92CDB7DEB767FD57C091
:100810007C01862F90E0603260F0809725E0289F71
:10082000B001299F700D112468597F4F45E050E0B9
:100830000FC0FC013796EE0FFF1FEE0DFF1D00816C
:1008400011810115110559F445E050E068E670E0AA
:10085000CE0101960E94600B8E010F5F1F4F680151
:1008600085E0C80ED11CF80141918F0161E0C701FC
:100870000E94A8030C151D05B1F740E061E0C70117
:100880000E94A803F701848590E00696628570E0D7
:100890000E94000E8487811115C0258530E02F5FEE
:1008A0003F4F938569E3969F612D1124669570E013
:1008B0006F5F7F4FC9010E94000E858703C080E0F3
:1008C00090E002C081E090E00F900F900F900F90A9
:1008D0000F90DF91CF911F910F91FF90EF90DF90DC
:1008E000CF9008952F923F924F925F926F927F9296
:1008F0008F929F92AF92BF92CF92DF92EF92FF9230
:100900000F931F93CF93DF93CDB7DEB7A4970FB6A6
:10091000F894DEBF0FBECDBF4B015C019B01AC0163
:100920000E94E60D882319F083E291E01AC0750158
:100930006401E894F7F82FEF3FEF4FE75FE7C70157
:10094000B6010E94E60D81110FC02FEF3FEF4FE778
:100950005FE7C701B6010E94D60B18162CF487E298
:1009600091E00E949403B0C02FEF3FEF4FE75FE4A8
:10097000C501B4010E942E0D18161CF48BE291E003
:10098000F0CF2FEF3FEF4FE75FECC501B4010E94BE
:10099000D60B87FDF3CF20E030E0A901C501B401FB
:1009A0000E94D60B87FF0BC06DE280ED95E00E94A0
:1009B000F9036C01B7FAB094B7F8B09402C0C12C37
:1009C000D12C2AE037ED43EA5BE3C501B4010E9474
:1009D0006A0B4B015C010E944D0C2B013C010E94F3
:1009E0007C0C9B01AC01C501B4010E94690B4B0159
:1009F0005C0119A27E0181E2E80EF11CEAA2FBA2D1
:100A0000C301B2012AE030E040E050E00E94140E41
:100A100029013A01605DF70162937F01232B242BAA
:100A2000252B71F7CF010E9494038C016EE280EDBB
:100A300095E00E94F903800F911F8C010C0D1D1D84
:100A400083E0F82E9AE0292E312C412C512CFA9477
:100A5000FF20C9F120E030E040E251E4C501B401DB
:100A60000E94330D4B015C010E944D0C9B0140E044
:100A700050E019A26AA07BA06CA3C32ED42EE52E51
:100A8000CA01B901A20191010E94140E605DF30137
:100A900062933F01211531054105510589F7CF01C9
:100AA0000E949403080F191F6CA17C2D8D2D9E2D83
:100AB0000E947C0C9B01AC01C501B4010E94690B32
:100AC0004B015C01C4CFC801A4960FB6F894DEBFF9
:100AD0000FBECDBFDF91CF911F910F91FF90EF908F
:100AE000DF90CF90BF90AF909F908F907F906F904E
:100AF0005F904F903F902F9008951F920F920FB6E6
:100B00000F9211242F933F934F935F936F937F9393
:100B10008F939F93AF93BF93EF93FF9383E395E0FE
:100B20000E94ED01FF91EF91BF91AF919F918F9145
:100B30007F916F915F914F913F912F910F900FBED9
:100B40000F901F9018951F920F920FB60F921124BD
:100B50002F938F939F93EF93FF93E0914305F09131
:100B600044058081E0914905F0914A0582FD12C05B
:100B7000908180914C058F5F8F7320914D05821776
:100B800051F0E0914C05F0E0ED5CFA4F958F8093C9
:100B90004C0501C08081FF91EF919F918F912F9122
:100BA0000F900FBE0F901F9018951F920F920FB6C7
:100BB0000F9211242F933F938F939F93AF93BF93E3
:100BC00080914B0190914C01A0914D01B0914E014B
:100BD00030914A0123E0230F2D3720F40196A11D07
:100BE000B11D05C026E8230F0296A11DB11D20935B
:100BF0004A0180934B0190934C01A0934D01B09317
:100C00004E0180914F0190915001A0915101B091FE
:100C100052010196A11DB11D80934F019093500187
:100C2000A0935101B0935201BF91AF919F918F91C9
:100C30003F912F910F900FBE0F901F901895E3E3F7
:100C4000F5E01382128288EE93E0A0E0B0E08483A6
:100C50009583A683B78389E091E09183808385ECB7
:100C600090E09587848784EC90E09787868780EC76
:100C700090E0918B808B81EC90E0938B828B82EC67
:100C800090E0958B848B86EC90E0978B868B118E11
:100C9000128E138E148EE0EDF5E0138212828BE13A
:100CA00091E09183808383E0848384E0858385E081
:100CB000868386E0878387E080870895789484B56B
:100CC000826084BD84B5816084BD85B5826085BD48
:100CD00085B5816085BD80916E00816080936E00D6
:100CE00010928100809181008260809381008091C8
:100CF0008100816080938100809180008160809379
:100D000080008091B10084608093B1008091B00038
:100D100081608093B00080917A00846080937A0033
:100D200080917A00826080937A0080917A0081605D
:100D300080937A0080917A00806880937A00109284
:100D4000C100E0914305F091440582E08083E09189
:100D50003F05F09140051082E0914105F091420578
:100D60008FEC808310924B05E0914705F091480588
:100D700086E08083E0914505F091460580818061A1
:100D80008083E0914505F0914605808188608083ED
:100D9000E0914505F0914605808180688083E0916F
:100DA0004505F091460580818F7D808360E08EE06F
:100DB0000E94E00284E58093DA0580E38093DB05FE
:100DC0001092D9051092DC051092DD0580E4EEED5D
:100DD000F5E0DF011D928A95E9F761E08091D40585
:100DE0000E94E00261E08091D5050E94E00261E08E
:100DF0008091D6050E94E00261E08091D7050E94B3
:100E0000E00261E08091D8050E94E00261E08091FB
:100E1000D7050E94B10261E08091D8050E94B1021D
:100E200060E08091D7050E94B10264E670E080E046
:100E300090E00E94560361E08091D7050E94B102C4
:100E400041E260E080ED95E00E94A80343E160E0AC
:100E500080ED95E00E94A8038091D905813041F48E
:100E600040EE60E080ED95E00E94A80345E001C0FF
:100E700042EC60E080ED95E00E94A80340E260E073
:100E800080ED95E00E94A80349E060E080ED95E0E8
:100E90000E94A80380E00E94D603C0E0D0E09091B9
:100EA000DA058091DB05869586958695989FC00129
:100EB0001124C817D90740F440E061E080ED95E0C7
:100EC0000E94A8032196EBCF80E00E94D60348E061
:100ED00060E080ED95E00E94A8034CE060E080EDCA
:100EE00095E00E94A80364E670E080E090E00E9434
:100EF000560340E860E080ED95E00E94A80340E4DE
:100F000060E080ED95E00E94A80361E088E00E9427
:100F1000E00261E082E00E94E00261E08BE00E947A
:100F2000E00261E08CE00E94E00280E091E09093BA
:100F3000DF058093DE0562E085E00E94E00253E475
:100F4000252E52E0352E63E3C62E63E0D62E03E253
:100F500014E073E1E72E75E0F72EE1EAF2E0849108
:100F6000EDE8F2E0C491E9E7F2E0D491DD2379F015
:100F700081110E948802ED2FF0E0EE0FFF1FE45A6E
:100F8000FD4FA591B4918C91C82309F05CC383E512
:100F9000A82E81E0B82EE5018EE00E941C03BC0162
:100FA000990F880B990B0E947E0C69937993899312
:100FB000999361E070E080E090E00E9456032C1667
:100FC0003D0651F7412C512C3201D5012D913D9117
:100FD0004D915D915D0160E070E88FEF93E40E94B8
:100FE000690B20E030E040E652E40E94330D20E03F
:100FF00030EC4FE754E40E94DB0B9B01AC010E94F4
:10100000330D9B01AC01C301B2010E946A0B2B019D
:101010003C012A143B04C9F620E030E040E752E4EA
:101020000E94DB0B0E94A60D60932B0570932C058C
:1010300080932D0590932E0580E00E94D6038FE2C9
:1010400091E00E94A60360912B0570912C05809180
:101050002D0590912E050E94720484E391E00E9478
:10106000A603C0E0D0E040902B0550902C05609086
:101070002D0570902E0520E030E048E551E4C301D5
:10108000B2010E942E0D181634F180902F05909019
:101090003005A0903105B090320520E030E040EA04
:1010A00051E4C501B4010E942E0D1816A4F020E0F1
:1010B00030E048E551ECC301B2010E94D60B87FD38
:1010C0000AC020E030E040EA51ECC501B4010E94C2
:1010D000D60B87FF02C061E001C060E088E00E949B
:1010E000B1022097C9F18FE00E941C03BC01990F47
:1010F000880B990B0E947E0C9B01AC0160E070E8AC
:101100008FEF93E40E94690B20E030E044E452E466
:101110000E94330D20E030EC4FE754E40E94DB0BDB
:1011200060932705709328058093290590932A05DD
:1011300081E00E94D6038FE291E00E94A6036091B5
:101140002705709128058091290590912A050E9414
:10115000720489E391E06AC033E4832E32E0932E77
:1011600054018FE00E941C03BC01990F880B990B5E
:101170000E947E0CF50161937193819391935F01BD
:1011800061E070E080E090E00E945603CA14DB0446
:1011900041F7412C512C3201D4012D913D914D91BB
:1011A0005D914D0160E070E88FEF93E40E94690B60
:1011B00020E030E040E652E40E94330D20E030ECC5
:1011C0004FE754E40E94DB0B9B01AC010E94330DFE
:1011D0009B01AC01C301B2010E946A0B2B013C01CF
:1011E000C814D904C9F620E030E040E752E40E9478
:1011F000DB0B0E94A60D609323057093240580935A
:1012000025059093260581E00E94D6038BE391E0AB
:101210000E94A60360912305709124058091250505
:10122000909126050E94720484E391E00E94A60337
:101230004090230550902405609025057090260568
:1012400020E030E048E551E4C301B2010E942E0DD8
:10125000181634F18090270590902805A090290554
:10126000B0902A0520E030E040EA51E4C501B40125
:101270000E942E0D1816A4F020E030E048E551EC55
:10128000C301B2010E94D60B87FD0AC020E030E006
:1012900040EA51ECC501B4010E94D60B87FF02C0A1
:1012A00061E001C060E08CE00E94B1022097C9F1CA
:1012B00080E10E941C03BC01990F880B990B0E94CE
:1012C0007E0C9B01AC0160E070E88FEF93E40E941C
:1012D000690B20E030E044E452E40E94330D20E04A
:1012E00030EC4FE754E40E94DB0B60931F057093D2
:1012F0002005809321059093220582E00E94D60369
:1013000080E491E00E94A60360911F057091200582
:1013100080912105909122050E94720489E391E059
:1013200066C023E3822E23E0922E540180E10E94C6
:101330001C03BC01990F880B990B0E947E0CF501D0
:1013400061937193819391935F0161E070E080E01C
:1013500090E00E9456030A151B0541F7412C512CC1
:101360003201D4012D913D914D915D914D0160E08F
:1013700070E88FEF93E40E94690B20E030E040E6D4
:1013800052E40E94330D20E030EC4FE754E40E9419
:10139000DB0B9B01AC010E94330D9B01AC01C3012F
:1013A000B2010E946A0B2B013C0108151905C9F610
:1013B00020E030E040E752E40E94DB0B0E94A60DE3
:1013C0004B015C0160931B0570931C0580931D0508
:1013D00090931E0582E00E94D60380E491E00E9473
:1013E000A603C501B4010E94720484E391E00E9447
:1013F000A60340901B0550901C0560901D05709041
:101400001E0520E030E048E551E4C301B2010E942E
:101410002E0D181634F180901F0590902005A09095
:101420002105B090220520E030E040EA51E4C501FA
:10143000B4010E942E0D1816A4F020E030E048E51B
:1014400051ECC301B2010E94D60B87FD0AC020E017
:1014500030E040EA51ECC501B4010E94D60B87FF91
:1014600002C061E001C060E082E00E94B102CD2BC9
:10147000C9F181E10E941C03BC01990F880B990BF3
:101480000E947E0C9B01AC0160E070E88FEF93E45A
:101490000E94690B20E030E044E452E40E94330DE6
:1014A00020E030EC4FE754E40E94DB0B609317051B
:1014B000709318058093190590931A0583E00E9494
:1014C000D60385E491E00E94A60360911705709110
:1014D00018058091190590911A050E94720489E3FC
:1014E00091E068C093E2A92E94E0B92EE50181E174
:1014F0000E941C03BC01990F880B990B0E947E0C63
:10150000699379938993999361E070E080E090E02A
:101510000E945603EC16FD0651F7412C512C320166
:10152000F50121913191419151915F0160E070E8A5
:101530008FEF93E40E94690B20E030E040E652E434
:101540000E94330D20E030EC4FE754E40E94DB0BA7
:101550009B01AC010E94330D9B01AC01C301B201A0
:101560000E946A0B2B013C01EA14FB04C9F620E03F
:1015700030E040E752E40E94DB0B0E94A60D60932E
:10158000130570931405809315059093160583E059
:101590000E94D60380E491E00E94A60360911305A7
:1015A0007091140580911505909116050E947204A2
:1015B00084E391E00E94A603409013055090140527
:1015C000609015057090160520E030E048E551E484
:1015D000C301B2010E942E0D181634F18090170538
:1015E00090901805A0901905B0901A0520E030E001
:1015F00040EA51E4C501B4010E942E0D1816A4F072
:1016000020E030E048E551ECC301B2010E94D60B66
:1016100087FD0AC020E030E040EA51ECC501B4018A
:101620000E94D60B87FF02C061E001C060E08BE042
:101630000E94B10264EF71E080E090E00E945603E6
:101640000E947E028ACC8EE00E941C03BC01990F8E
:10165000880B990B0E947E0C9B01AC0160E070E846
:101660008FEF93E40E94690B20E030E044E452E401
:101670000E94330D20E030EC4FE754E40E94DB0B76
:1016800060932F0570933005809331059093320558
:1016900080E00E94D6038FE291E00E94A603609151
:1016A0002F057091300580913105909132050E948F
:1016B000720489E391E00E94A603C1E0D0E0D3CC9C
:1016C000FB01DC0102C005900D9241505040D8F75B
:1016D00008955058BB27AA270E94810B0C94F40C44
:1016E0000E94E60C38F00E94ED0C20F039F49F3F88
:1016F00019F426F40C94E30C0EF4E095E7FB0C943B
:10170000DD0CE92F0E94050D58F3BA176207730725
:101710008407950720F079F4A6F50C94270D0EF4B4
:10172000E0950B2EBA2FA02D0B01B90190010C01F1
:10173000CA01A0011124FF27591B99F0593F50F409
:10174000503E68F11A16F040A22F232F342F442761
:10175000585FF3CF469537952795A795F040539559
:10176000C9F77EF41F16BA0B620B730B840BBAF029
:101770009150A1F0FF0FBB1F661F771F881FC2F794
:101780000EC0BA0F621F731F841F48F487957795A8
:101790006795B795F7959E3F08F0B0CF9395880F62
:1017A00008F09927EE0F9795879508950E94B90C38
:1017B00008F481E008950E94EF0B0C94F40C0E9451
:1017C000ED0C58F00E94E60C40F029F45F3F29F040
:1017D0000C94DD0C51110C94280D0C94E30C0E9418
:1017E000050D68F39923B1F3552391F3951B550B20
:1017F000BB27AA2762177307840738F09F5F5F4FE4
:10180000220F331F441FAA1FA9F335D00E2E3AF022
:10181000E0E832D091505040E695001CCAF72BD03A
:10182000FE2F29D0660F771F881FBB1F261737078B
:101830004807AB07B0E809F0BB0B802DBF01FF27BD
:1018400093585F4F3AF09E3F510578F00C94DD0CB1
:101850000C94280D5F3FE4F3983ED4F3869577957A
:101860006795B795F7959F5FC9F7880F911D969576
:10187000879597F90895E1E0660F771F881FBB1FD2
:10188000621773078407BA0720F0621B730B840B7F
:10189000BA0BEE1F88F7E09508950E940D0D88F0B1
:1018A0009F5798F0B92F9927B751B0F0E1F0660F24
:1018B000771F881F991F1AF0BA95C9F714C0B13065
:1018C00091F00E94270DB1E008950C94270D672F29
:1018D000782F8827B85F39F0B93FCCF38695779594
:1018E0006795B395D9F73EF490958095709561957D
:1018F0007F4F8F4F9F4F0895E89409C097FB3EF4A8
:1019000090958095709561957F4F8F4F9F4F99234C
:10191000A9F0F92F96E9BB279395F69587957795CA
:101920006795B795F111F8CFFAF4BB0F11F460FF8A
:101930001BC06F5F7F4F8F4F9F4F16C0882311F0E2
:1019400096E911C0772321F09EE8872F762F05C0F6
:10195000662371F096E8862F70E060E02AF09A9591
:10196000660F771F881FDAF7880F9695879597F986
:101970000895990F0008550FAA0BE0E8FEEF161620
:101980001706E807F907C0F012161306E407F50773
:1019900098F0621B730B840B950B39F40A2661F0E7
:1019A000232B242B252B21F408950A2609F4A1408A
:1019B000A6958FEF811D811D089597F99F6780E897
:1019C00070E060E008959FEF80EC089500240A9491
:1019D0001616170618060906089500240A9412160A
:1019E0001306140605060895092E0394000C11F43D
:1019F000882352F0BB0F40F4BF2B11F460FF04C0EA
:101A00006F5F7F4F8F4F9F4F089557FD9058440F42
:101A1000551F59F05F3F71F04795880F97FB991F4D
:101A200061F09F3F79F0879508951216130614060A
:101A3000551FF2CF4695F1DF08C016161706180697
:101A4000991FF1CF86957105610508940895E89472
:101A5000BB2766277727CB0197F908950E94B90C19
:101A600008F48FEF08950E94460D0C94F40C0E9428
:101A7000E60C38F00E94ED0C20F0952311F00C9448
:101A8000DD0C0C94E30C11240C94280D0E94050D20
:101A900070F3959FC1F3950F50E0551F629FF001C1
:101AA000729FBB27F00DB11D639FAA27F00DB11DDA
:101AB000AA1F649F6627B00DA11D661F829F222763
:101AC000B00DA11D621F739FB00DA11D621F839FEA
:101AD000A00D611D221F749F3327A00D611D231FC0
:101AE000849F600D211D822F762F6A2F11249F570E
:101AF00050409AF0F1F088234AF0EE0FFF1FBB1F11
:101B0000661F771F881F91505040A9F79E3F5105CF
:101B100080F00C94DD0C0C94280D5F3FE4F3983EAC
:101B2000D4F3869577956795B795F795E7959F5F79
:101B3000C1F7FE2B880F911D9695879597F908950B
:101B400019F416F40C94E30C0C94EB0D0E940D0D9B
:101B5000B8F39923C9F3B6F39F57550B87FF0E943B
:101B6000F90D0024A0E640EA90018058569597951B
:101B700028F4805C660F771F881F20F02617370730
:101B8000480730F4621B730B840B202931294A2B40
:101B9000A69517940794202531254A2758F7660FF4
:101BA000771F881F20F026173707480730F4620B8D
:101BB000730B840B200D311D411DA09581F7B901D8
:101BC000842F9158880F9695879508950E94B90C97
:101BD000880B990B08959F3F31F0915020F4879521
:101BE00077956795B795880F911D9695879597F985
:101BF000089591505040660F771F881FD2F70895BF
:101C000097FB072E16F4009407D077FD09D00E94A9
:101C1000360E07FC05D03EF4909581959F4F0895B0
:101C2000709561957F4F0895A1E21A2EAA1BBB1BE8
:101C3000FD010DC0AA1FBB1FEE1FFF1FA217B30798
:101C4000E407F50720F0A21BB30BE40BF50B661FAE
:101C5000771F881F991F1A9469F760957095809572
:101C600090959B01AC01BD01CF010895AA1BBB1B40
:101C700051E107C0AA1FBB1FA617B70710F0A61B8C
:101C8000B70B881F991F5A95A9F780959095BC01AD
:101C9000CD010895EE0FFF1F0590F491E02D0994FA
:0E1CA00081E090E0F8940C94550EF894FFCF7C
:101CAE001034303410000000000F027C01A6015CDD
:101CBE0002D701B501C90100000000F9037C0191B2
:101CCE000390036E616E00696E66006F7666005655
:101CDE00313A200056726D7300560056323A20008B
:0A1CEE0056333A200056343A200025
:107E0000112484B714BE81FFF0D085E080938100F7
:107E100082E08093C00088E18093C10086E0809377
:107E2000C20080E18093C4008EE0C9D0259A86E02C
:107E300020E33CEF91E0309385002093840096BBD3
:107E4000B09BFECF1D9AA8958150A9F7CC24DD24C4
:107E500088248394B5E0AB2EA1E19A2EF3E0BF2EE7
:107E6000A2D0813461F49FD0082FAFD0023811F036
:107E7000013811F484E001C083E08DD089C08234E0
:107E800011F484E103C0853419F485E0A6D080C0E4
:107E9000853579F488D0E82EFF2485D0082F10E0AE
:107EA000102F00270E291F29000F111F8ED06801E7
:107EB0006FC0863521F484E090D080E0DECF843638
:107EC00009F040C070D06FD0082F6DD080E0C81688
:107ED00080E7D80618F4F601B7BEE895C0E0D1E017
:107EE00062D089930C17E1F7F0E0CF16F0E7DF06D8
:107EF00018F0F601B7BEE89568D007B600FCFDCFD4
:107F0000A601A0E0B1E02C9130E011968C91119780
:107F100090E0982F8827822B932B1296FA010C0160
:107F200087BEE89511244E5F5F4FF1E0A038BF0790
:107F300051F7F601A7BEE89507B600FCFDCF97BE46
:107F4000E89526C08437B1F42ED02DD0F82E2BD052
:107F50003CD0F601EF2C8F010F5F1F4F84911BD097
:107F6000EA94F801C1F70894C11CD11CFA94CF0C13
:107F7000D11C0EC0853739F428D08EE10CD085E9AC
:107F80000AD08FE07ACF813511F488E018D01DD067
:107F900080E101D065CF982F8091C00085FFFCCF94
:107FA0009093C60008958091C00087FFFCCF809118
:107FB000C00084FD01C0A8958091C6000895E0E648
:107FC000F0E098E1908380830895EDDF803219F02E
:107FD00088E0F5DFFFCF84E1DECF1F93182FE3DFCA
:107FE0001150E9F7F2DF1F91089580E0E8DFEE27F6
:047FF000FF270994CA
:027FFE00040479
:0400000300007E007B
:00000001FF
