:100000000C9452010C947A010C947A010C947A01AC
:100010000C947A010C947A010C947A010C947A0174
:100020000C947A010C947A010C947A010C947A0164
:100030000C947A010C947A010C947A010C947A0154
:100040000C94C7050C947A010C9495050C946F05DB
:100050000C947A010C947A010C947A010C947A0134
:100060000C947A010C947A01000000000000005FFB
:1000700000000007000700147F147F14242A7F2A41
:10008000122313086462364955225000050300000C
:10009000001C2241000041221C0014083E081408E4
:1000A000083E0808005030000008080808080060F2
:1000B00060000020100804023E5149453E00427F86
:1000C000400042615149462141454B311814127F8D
:1000D0001027454545393C4A494930017109050316
:1000E0003649494936064949291E0036360000007E
:1000F0005636000008142241001414141414004150
:100100002214080201510906324979413E7E11113B
:10011000117E7F494949363E414141227F4141227A
:100120001C7F494949417F090909013E4149497AF2
:100130007F0808087F00417F41002040413F017F48
:10014000081422417F404040407F020C027F7F0420
:1001500008107F3E4141413E7F090909063E415159
:10016000215E7F09192946464949493101017F012C
:10017000013F4040403F1F2040201F3F4038403F4C
:100180006314081463070870080761514945430068
:100190007F41410002040810200041417F00040219
:1001A0000102044040404040000102040020545439
:1001B00054787F48444438384444442038444448C0
:1001C0007F3854545418087E0901020C5252523E92
:1001D0007F0804047800447D40002040443D007FB7
:1001E0001028440000417F40007C041804787C08FB
:1001F00004047838444444387C1414140808141453
:10020000187C7C080404084854545420043F44409B
:10021000203C4040207C1C2040201C3C4030403C86
:1002200044281028440C5050503C4464544C440022
:100230000836410000007F00000041360800100829
:100240000810080000000000000000002400270043
:100250002A0000000000250028002B0000000000FC
:1002600023002600290004040404040404040202F8
:100270000202020203030303030301020408102025
:100280004080010204081020010204081020000030
:100290000008000201000003040700000000000045
:1002A0000000110611241FBECFEFD8E0DEBFCDBF86
:1002B00011E0A0E0B1E0E4E7FCE102C005900D929E
:1002C000AA34B107D9F726E0AAE4B1E001C01D9233
:1002D000AE31B207E1F711E0C2E5D1E004C02197E9
:1002E000FE010E94320EC135D107C9F70E945006A7
:1002F0000C94380E0C940000AF92BF92CF92DF9214
:10030000EF92FF920F931F93CF93DF936C017B01CA
:100310008B01040F151FEB015E01AE18BF08C0175B
:10032000D10759F06991D601ED91FC910190F081CE
:10033000E02DC6010995892B79F7C501DF91CF9191
:100340001F910F91FF90EF90DF90CF90BF90AF90F3
:100350000895FC01538D448D252F30E0842F90E0CB
:10036000821B930B541710F0CF96089501970895B0
:10037000FC01918D828D981761F0A28DAE0FBF2F79
:10038000B11D5D968C91928D9F5F9F73928F90E0CF
:1003900008958FEF9FEF0895FC01918D828D98173E
:1003A00031F0828DE80FF11D858D90E008958FEF7B
:1003B0009FEF0895FC01918D228D892F90E0805C44
:1003C0009F4F821B91098F739927089583E395E0CE
:1003D0000E94DA0121E0892B09F420E0822F0895A0
:1003E00080E090E0892B29F00E94E60181110C94B5
:1003F00000000895FC01A48DA80FB92FB11DA35AC8
:10040000BF4F2C91848D90E001968F739927848F34
:10041000A689B7892C93A089B1898C918370806457
:100420008C93938D848D981306C00288F389E02DF8
:1004300080818F7D80830895EF92FF920F931F93A9
:10044000CF93DF93EC0181E0888F9B8D8C8D981387
:100450001AC0E889F989808185FF15C09FB7F89493
:10046000EE89FF896083E889F989808183708064DF
:1004700080839FBF81E090E0DF91CF911F910F912A
:10048000FF90EF900895F62E0B8D10E00F5F1F4F39
:100490000F731127E02E8C8D8E110CC00FB607FC48
:1004A000FACFE889F989808185FFF5CFCE010E94D6
:1004B000FA01F1CFEB8DEC0FFD2FF11DE35AFF4F49
:1004C000F0829FB7F8940B8FEA89FB898081806264
:1004D000CFCFCF93DF93EC01888D8823B9F0AA8921
:1004E000BB89E889F9898C9185FD03C0808186FDEF
:1004F0000DC00FB607FCF7CF8C9185FFF2CF80813E
:1005000085FFEDCFCE010E94FA01E9CFDF91CF91B7
:100510000895833081F028F4813099F08230A9F079
:1005200008958730A9F08830C9F08430B1F4809103
:1005300080008F7D03C0809180008F778093800042
:10054000089584B58F7784BD089584B58F7DFBCFE2
:100550008091B0008F778093B00008958091B000B3
:100560008F7DF9CF1F93CF93DF93282F30E0F901D0
:10057000E257FD4F8491F901E658FD4FD491F901FE
:10058000EA59FD4FC491CC23A9F0162F81110E9486
:100590008902EC2FF0E0EE0FFF1FEE5AFD4FA59100
:1005A000B4918FB7F894EC91111108C0D095DE2367
:1005B000DC938FBFDF91CF911F910895DE2BF8CF91
:1005C000CF93DF9390E0FC01E658FD4F24918A59C8
:1005D0009D4FFC0184918823C9F090E0880F991FFA
:1005E000FC01E85BFD4FA591B491FC01EE5AFD4F73
:1005F000C591D49161110DC09FB7F8948C9120954D
:1006000082238C938881282328839FBFDF91CF91F9
:100610000895623051F49FB7F8943C91822F8095F1
:1006200083238C93E8812E2BEFCF8FB7F894EC9136
:100630002E2B2C938FBFEACF8E50806480937C004A
:1006400080917A00806480937A0080917A0086FDA0
:10065000FCCF809178009091790008953FB7F8948D
:1006600080914F0190915001A0915101B0915201A0
:1006700026B5A89B05C02F3F19F00196A11DB11DFD
:100680003FBFBA2FA92F982F8827BC01CD01620F39
:10069000711D811D911D42E0660F771F881F991FF4
:1006A0004A95D1F708958F929F92AF92BF92CF92C1
:1006B000DF92EF92FF924B015C010E942E036B01CF
:1006C0007C010E942E036C197D098E099F09683EEA
:1006D000734081059105A8F321E0821A9108A108D1
:1006E000B10888EEC80E83E0D81EE11CF11C81140D
:1006F0009104A104B10429F7FF90EF90DF90CF900F
:10070000BF90AF909F908F900895089590E080E003
:100710000895FC0101900020E9F73197AF01481BD3
:10072000590BBC0180ED95E00C947C018F929F9257
:10073000AF92BF920F931F93CF93DF93CDB7DEB7E6
:10074000A1970FB6F894DEBF0FBECDBF19A24230FD
:1007500008F44AE08E010F5D1F4F842E912CB12CBE
:10076000A12CA50194010E94FC0DE62FB901CA013C
:10077000EA30F4F4E05DD801EE938D01232B242BB5
:10078000252B79F790E080E0109719F0CD010E94B9
:100790008903A1960FB6F894DEBF0FBECDBFDF91DF
:1007A000CF911F910F91BF90AF909F908F90089520
:1007B000E95CE1CF0C948903EF92FF920F931F93B2
:1007C000CF93DF93EC01042F8E810E94B20260E090
:1007D00088850E94B202FC80ED8018E0602F661FC1
:1007E0006627661F8E2D0E94B202000F61E08F2DDA
:1007F0000E94B20260E08F2D0E94B202115071F788
:1008000061E08885DF91CF911F910F91FF90EF906C
:100810000C94B202CF93DF93C0EDD5E01C8690E03C
:100820006B8529E3629F612D1124669570E06F5FEF
:100830007F4F0E94E80D8D8740E860E0CE010E9466
:10084000DC034D85406460E0CE01DF91CF910C94D4
:10085000DC03CF92DF92EF92FF920F931F93CF931F
:10086000DF9300D000D01F92CDB7DEB767FD66C022
:100870007C01862F90E0603208F44FC0809725E01D
:10088000289FB001299F700D112468597F4F45E0C2
:1008900050E0CE0101960E94480B8E010F5F1F4F62
:1008A000680185E0C80ED11CF80141918F0161E01B
:1008B000C7010E94DC030C151D05B1F740E061E0A3
:1008C000C7010E94DC03F701848590E006966285EB
:1008D00070E00E94E80D8487892B79F4858590E08B
:1008E0000196638529E3629F612D1124669570E06E
:1008F0006F5F7F4F0E94E80D858781E090E00F9049
:100900000F900F900F900F90DF91CF911F910F914B
:10091000FF90EF90DF90CF900895FC013796EE0F97
:10092000FF1FEE0DFF1D008111810115110509F05A
:10093000B7CF45E050E068E670E0ABCF90E080E0F4
:10094000DECF4F925F926F927F928F929F92AF9283
:10095000BF92CF92DF92EF92FF926B017C01AC01CC
:100960009B010E94CE0D882381F083E291E0FF90ED
:10097000EF90DF90CF90BF90AF909F908F907F903F
:100980006F905F904F900C94890346015701E89453
:10099000B7F82FEF3FEF4FE75FE7C501B4010E94C3
:1009A000CE0D81110DC02FEF3FEF4FE75FE7C5017F
:1009B000B4010E94BE0B18161CF487E291E0D7CF59
:1009C0002FEF3FEF4FE75FE4C701B6010E94160D1E
:1009D00018161CF48BE291E0CACF2FEF3FEF4FE7E0
:1009E0005FECC701B6010E94BE0B87FDF3CF20E08C
:1009F00030E0A901C701B6010E94BE0BB12CA12CA9
:100A000087FF0AC06DE280ED95E00E9429045C0139
:100A1000F7FAF094F7F8F0942AE037ED43EA5BE355
:100A2000C701B6010E94520B2B013C010E94350CFC
:100A30006B017C010E94640C9B01AC01C301B201FB
:100A40000E94510B2B013C014AE0C701B6010E94F4
:100A500096037C01EA0CFB1C6EE280ED95E00E949F
:100A60002904E80EF91E20E030E040E251E4C30121
:100A7000B2010E941B0D2B013C010E94350C4B0161
:100A8000B12CA12C4AE0C501B4010E949603E80EE6
:100A9000F91EC501B4010E94640C9B01AC01C301A5
:100AA000B2010E94510B20E030E040E251E40E948C
:100AB0001B0D0E94350C90E080E04AE00E949603F6
:100AC0008E0D9F1DFF90EF90DF90CF90BF90AF9065
:100AD0009F908F907F906F905F904F9008951F929E
:100AE0000F920FB60F9211242F933F934F935F9362
:100AF0006F937F938F939F93AF93BF93EF93FF93E6
:100B000083E395E00E94FA01FF91EF91BF91AF91CD
:100B10009F918F917F916F915F914F913F912F9115
:100B20000F900FBE0F901F9018951F920F920FB647
:100B30000F9211242F938F939F93EF93FF93E09144
:100B40004305F09144058081E0914905F0914A0503
:100B500082FD1BC0908180914C058F5F8F73209127
:100B60004D05821741F0E0914C05F0E0ED5CFA4F45
:100B7000958F80934C05FF91EF919F918F912F91CD
:100B80000F900FBE0F901F9018958081F4CF1F9289
:100B90000F920FB60F9211242F933F938F939F9331
:100BA000AF93BF9380914B0190914C01A0914D0167
:100BB000B0914E0130914A0123E0230F2D3758F5B3
:100BC0000196A11DB11D20934A0180934B01909382
:100BD0004C01A0934D01B0934E0180914F01909133
:100BE0005001A0915101B09152010196A11DB11D7A
:100BF00080934F0190935001A0935101B093520103
:100C0000BF91AF919F918F913F912F910F900FBE08
:100C10000F901F90189526E8230F0296A11DB11D75
:100C2000D2CFE3E3F5E01382128288EE93E0A0E0F6
:100C3000B0E084839583A683B78389E091E09183B4
:100C4000808385EC90E09587848784EC90E097879B
:100C5000868780EC90E0918B808B81EC90E0938B89
:100C6000828B82EC90E0958B848B86EC90E0978B66
:100C7000868B118E128E138E148EE0EDF5E01382AA
:100C800012828BE191E09183808383E0848384E00E
:100C9000858385E0868386E0878387E08087089563
:100CA000789484B5826084BD84B5816084BD85B547
:100CB000826085BD85B5816085BD80916E00816053
:100CC00080936E00109281008091810082608093F9
:100CD00081008091810081608093810080918000FB
:100CE0008160809380008091B10084608093B10026
:100CF0008091B00081608093B00080917A00846020
:100D000080937A0080917A00826080937A0080914B
:100D10007A00816080937A0080917A008068809365
:100D20007A001092C100E0914305F091440582E001
:100D30008083E0913F05F09140051082E0914105EC
:100D4000F09142058FEC808310924B05E0914705AE
:100D5000F091480586E08083E0914505F0914605D5
:100D6000808180618083E0914505F0914605808116
:100D700088608083E0914505F09146058081806818
:100D80008083E0914505F091460580818F7D8083C9
:100D900060E08EE00E94E00284E58093DA0580E363
:100DA0008093DB051092D9051092DC051092DD05C9
:100DB000EEEDF5E080E4DF011D928A95E9F761E050
:100DC0008091D4050E94E00261E08091D5050E94E7
:100DD000E00261E08091D6050E94E00261E080912E
:100DE000D7050E94E00261E08091D8050E94E002F0
:100DF00061E08091D7050E94B20261E08091D80540
:100E00000E94B20260E08091D7050E94B20264E6BF
:100E100070E080E090E00E94530361E08091D7058C
:100E20000E94B20241E260E080ED95E00E94DC03A6
:100E300043E160E080ED95E00E94DC038091D905FC
:100E400042EC813039F440EE60E080ED95E00E94A4
:100E5000DC0345E060E080ED95E00E94DC0340E2C9
:100E600060E080ED95E00E94DC0349E060E080ED09
:100E700095E00E94DC0380E00E940A04D0E0C0E01C
:100E80008091DB058695869586959091DA05899FF8
:100E9000C0011124C817D90740F440E061E080ED9B
:100EA00095E00E94DC032196EBCF80E00E940A04CB
:100EB00048E060E080ED95E00E94DC034CE060E0FB
:100EC00080ED95E00E94DC0364E670E080E090E055
:100ED0000E94530340E860E080ED95E00E94DC034F
:100EE00040E460E080ED95E00E94DC0361E088E092
:100EF0000E94E00280E091E09093DF058093DE05A0
:100F000062E085E00E94E00243E3242E43E0342EB9
:100F100053E2852E54E0952E30E0A32E30E0B32E20
:100F2000E1EAF2E08491EDE8F2E0C491E9E7F2E071
:100F3000D491DD2309F404C281110E948902ED2FAE
:100F4000F0E0EE0FFF1FE45AFD4FA591B4918C9194
:100F5000C82309F4F5C18EE00E941C03BC01990F5F
:100F6000880B990B0E94660C9B01AC0160E070E855
:100F70008FEF93E40E94510B20E030E044E452E410
:100F80000E941B0D20E030EC4FE754E40E94C30B9D
:100F900060932F057093300580933105909332054F
:100FA00080E00E940A048FE291E00E94DA036091DF
:100FB0002F057091300580913105909132050E9486
:100FC000A10484E391E00E94DA03C1E0D0E0C09084
:100FD0002B05D0902C05E0902D05F0902E0520E0FB
:100FE00030E048E551E4C701B6010E94160D18161D
:100FF00034F140902F05509030056090310570908D
:10100000320520E030E040EA51E4C301B2010E9421
:10101000160D1816A4F020E030E048E551ECC701A9
:10102000B6010E94BE0B87FD0AC020E030E040EA16
:1010300051ECC301B2010E94BE0B60E087FD61E08C
:1010400088E00E94B202209709F4E7C18FE00E9475
:101050001C03BC01990F880B990B0E94660C9B0125
:10106000AC0160E070E88FEF93E40E94510B20E048
:1010700030E044E452E40E941B0D20E030EC4FE7E6
:1010800054E40E94C30B6093270570932805809356
:10109000290590932A0581E00E940A048FE291E0DD
:1010A0000E94DA0360912705709128058091290537
:1010B00090912A050E94A10484E391E00E94DA0342
:1010C000C0902305D0902405E0902505F0902605DA
:1010D00020E030E048E551E4C701B6010E94160D5A
:1010E000181634F140902705509028056090290586
:1010F00070902A0520E030E040EA51E4C301B201DB
:101100000E94160D1816A4F020E030E048E551ECDE
:10111000C701B6010E94BE0B87FD0AC020E030E087
:1011200040EA51ECC301B2010E94BE0B60E087FDB2
:1011300061E08CE00E94B202209709F4D9C180E1FD
:101140000E941C03BC01990F880B990B0E94660C2E
:101150009B01AC0160E070E88FEF93E40E94510BBB
:1011600020E030E044E452E40E941B0D20E030EC2B
:101170004FE754E40E94C30B60931F057093200552
:10118000809321059093220582E00E940A0480E466
:1011900091E00E94DA0360911F0570912005809113
:1011A0002105909122050E94A10484E391E00E9410
:1011B000DA03C0901B05D0901C05E0901D05F0904F
:1011C0001E0520E030E048E551E4C701B6010E9469
:1011D000160D181634F140901F05509020056090B0
:1011E00021057090220520E030E040EA51E4C3017F
:1011F000B2010E94160D1816A4F020E030E048E578
:1012000051ECC701B6010E94BE0B87FD0AC020E069
:1012100030E040EA51ECC301B2010E94BE0B60E035
:1012200087FD61E082E00E94B202CD2B09F4C7C1C4
:1012300081E10E941C03BC01990F880B990B0E944D
:10124000660C9B01AC0160E070E88FEF93E40E94B4
:10125000510B20E030E044E452E40E941B0D20E0FA
:1012600030EC4FE754E40E94C30B60931705709372
:1012700018058093190590931A0583E00E940A04CB
:1012800085E491E00E94DA036091170570911805DA
:101290008091190590911A050E94A10484E391E0C0
:1012A0000E94DA03C0901305D0901405E090150554
:1012B000F090160520E030E048E551E4C701B601A2
:1012C0000E94160D181634F140901705509018051D
:1012D0006090190570901A0520E030E040EA51E472
:1012E000C301B2010E94160D1816A4F020E030E0F0
:1012F00048E551ECC701B6010E94BE0B87FD0AC04C
:1013000020E030E040EA51ECC301B2010E94BE0B84
:1013100060E087FD61E08BE00E94B20264EF71E063
:1013200080E090E00E945303A114B10409F4F8CDC9
:101330000E94E601882309F4EFCD0E940000ECCD65
:1013400003E511E0E8018EE00E941C03BC01990F47
:10135000880B990B0E94660C6993799389939993F2
:1013600061E070E080E090E00E94530383E492E04B
:101370008C179D0741F7412C512C3201D8012D913A
:101380003D914D915D918D0160E070E88FEF93E4A8
:101390000E94510B20E030E040E652E40E941B0D19
:1013A00020E030EC4FE754E40E94C30B9B01AC01FA
:1013B0000E941B0D9B01AC01C301B2010E94520BA4
:1013C0002B013C01C017D107C9F620E030E040E70F
:1013D00052E40E94C30B0E948E0D60932B05709304
:1013E0002C0580932D0590932E0580E00E940A0421
:1013F0008FE291E00E94DA0360912B0570912C0539
:1014000080912D0590912E050E94A10486E391E024
:101410000E94DA03D0E0C0E0DACD93E4E92E92E056
:10142000F92E87018FE00E941C03BC01990F880BE5
:10143000990B0E94660CF8016193719381939193CB
:101440008F0161E070E080E090E00E94530320167D
:10145000310641F7412C512C3201D7012D913D919C
:101460004D915D917D0160E070E88FEF93E40E9403
:10147000510B20E030E040E652E40E941B0D20E0DA
:1014800030EC4FE754E40E94C30B9B01AC010E9477
:101490001B0D9B01AC01C301B2010E94520B2B0139
:1014A0003C010E151F05C9F620E030E040E752E48C
:1014B0000E94C30B0E948E0D609323057093240538
:1014C000809325059093260581E00E940A048BE312
:1014D00091E00E94DA0360912305709124058091C8
:1014E0002505909126050E94A10486E391E0E6CDB2
:1014F00083E3E82E83E0F82E870180E10E941C033D
:10150000BC01990F880B990B0E94660CF80161933E
:101510007193819391938F0161E070E080E090E09E
:101520000E9453038016910641F7412C512C320141
:10153000D7012D913D914D915D917D0160E070E865
:101540008FEF93E40E94510B20E030E040E652E43C
:101550000E941B0D20E030EC4FE754E40E94C30BC7
:101560009B01AC010E941B0D9B01AC01C301B201A8
:101570000E94520B2B013C010E151F05C9F620E0FD
:1015800030E040E752E40E94C30B0E948E0D2B0115
:101590003C0140921B0550921C0560921D05709203
:1015A0001E0582E00E940A0480E491E00E94DA03B2
:1015B000C301B2010E94A10486E391E0F8CD03E2E9
:1015C00014E0E80181E10E941C03BC01990F880B23
:1015D000990B0E94660C699379938993999361E0C2
:1015E00070E080E090E00E945303E3E1F5E0EC1747
:1015F000FD0741F7412C512C3201D8012D913D912D
:101600004D915D918D0160E070E88FEF93E40E9451
:10161000510B20E030E040E652E40E941B0D20E038
:1016200030EC4FE754E40E94C30B9B01AC010E94D5
:101630001B0D9B01AC01C301B2010E94520B2B0197
:101640003C01C017D107C9F620E030E040E752E482
:101650000E94C30B0E948E0D6093130570931405B6
:10166000809315059093160583E00E940A0480E498
:1016700091E00E94DA036091130570911405809146
:101680001505909116050E94A10486E391E008CE0D
:10169000FB01DC0102C005900D9241505040D8F78B
:1016A00008955058BB27AA270E94690B0C94DC0CA4
:1016B0000E94CE0C38F00E94D50C20F039F49F3FE8
:1016C00019F426F40C94CB0C0EF4E095E7FB0C9483
:1016D000C50CE92F0E94ED0C58F3BA176207730787
:1016E0008407950720F079F4A6F50C940F0D0EF4FD
:1016F000E0950B2EBA2FA02D0B01B90190010C0122
:10170000CA01A0011124FF27591B99F0593F50F439
:10171000503E68F11A16F040A22F232F342F442791
:10172000585FF3CF469537952795A795F040539589
:10173000C9F77EF41F16BA0B620B730B840BBAF059
:101740009150A1F0FF0FBB1F661F771F881FC2F7C4
:101750000EC0BA0F621F731F841F48F487957795D8
:101760006795B795F7959E3F08F0B0CF9395880F92
:1017700008F09927EE0F9795879508950E94A10C80
:1017800008F481E008950E94D70B0C94DC0C0E94B1
:10179000D50C58F00E94CE0C40F029F45F3F29F0A0
:1017A0000C94C50C51110C94100D0C94CB0C0E9490
:1017B000ED0C68F39923B1F3552391F3951B550B69
:1017C000BB27AA2762177307840738F09F5F5F4F14
:1017D000220F331F441FAA1FA9F335D00E2E3AF053
:1017E000E0E832D091505040E695001CCAF72BD06B
:1017F000FE2F29D0660F771F881FBB1F26173707BC
:101800004807AB07B0E809F0BB0B802DBF01FF27ED
:1018100093585F4F3AF09E3F510578F00C94C50CF9
:101820000C94100D5F3FE4F3983ED4F386957795C2
:101830006795B795F7959F5FC9F7880F911D9695A6
:10184000879597F90895E1E0660F771F881FBB1F02
:10185000621773078407BA0720F0621B730B840BAF
:10186000BA0BEE1F88F7E09508950E94F50C88F0FA
:101870009F5798F0B92F9927B751B0F0E1F0660F54
:10188000771F881F991F1AF0BA95C9F714C0B13095
:1018900091F00E940F0DB1E008950C940F0D672F89
:1018A000782F8827B85F39F0B93FCCF386957795C4
:1018B0006795B395D9F73EF49095809570956195AD
:1018C0007F4F8F4F9F4F0895E89409C097FB3EF4D8
:1018D00090958095709561957F4F8F4F9F4F99237D
:1018E000A9F0F92F96E9BB279395F69587957795FB
:1018F0006795B795F111F8CFFAF4BB0F11F460FFBB
:101900001BC06F5F7F4F8F4F9F4F16C0882311F012
:1019100096E911C0772321F09EE8872F762F05C026
:10192000662371F096E8862F70E060E02AF09A95C1
:10193000660F771F881FDAF7880F9695879597F9B6
:101940000895990F0008550FAA0BE0E8FEEF161650
:101950001706E807F907C0F012161306E407F507A3
:1019600098F0621B730B840B950B39F40A2661F017
:10197000232B242B252B21F408950A2609F4A140BA
:10198000A6958FEF811D811D089597F99F6780E8C7
:1019900070E060E008959FEF80EC089500240A94C1
:1019A0001616170618060906089500240A9412163A
:1019B0001306140605060895092E0394000C11F46D
:1019C000882352F0BB0F40F4BF2B11F460FF04C01A
:1019D0006F5F7F4F8F4F9F4F089557FD9058440F73
:1019E000551F59F05F3F71F04795880F97FB991F7E
:1019F00061F09F3F79F0879508951216130614063B
:101A0000551FF2CF4695F1DF08C0161617061806C7
:101A1000991FF1CF86957105610508940895E894A2
:101A2000BB2766277727CB0197F908950E94A10C61
:101A300008F48FEF08950E942E0D0C94DC0C0E9488
:101A4000CE0C38F00E94D50C20F0952311F00C94A8
:101A5000C50C0C94CB0C11240C94100D0E94ED0CB1
:101A600070F3959FC1F3950F50E0551F629FF001F1
:101A7000729FBB27F00DB11D639FAA27F00DB11D0A
:101A8000AA1F649F6627B00DA11D661F829F222793
:101A9000B00DA11D621F739FB00DA11D621F839F1A
:101AA000A00D611D221F749F3327A00D611D231FF0
:101AB000849F600D211D822F762F6A2F11249F573E
:101AC00050409AF0F1F088234AF0EE0FFF1FBB1F41
:101AD000661F771F881F91505040A9F79E3F510500
:101AE00080F00C94C50C0C94100D5F3FE4F3983E0D
:101AF000D4F3869577956795B795F795E7959F5FAA
:101B0000C1F7FE2B880F911D9695879597F908953B
:101B100019F416F40C94CB0C0C94D30D0E94F50C14
:101B2000B8F39923C9F3B6F39F57550B87FF0E946B
:101B3000E10D0024A0E640EA900180585695979563
:101B400028F4805C660F771F881F20F02617370760
:101B5000480730F4621B730B840B202931294A2B70
:101B6000A69517940794202531254A2758F7660F24
:101B7000771F881F20F026173707480730F4620BBD
:101B8000730B840B200D311D411DA09581F7B90108
:101B9000842F9158880F9695879508950E94A10CDF
:101BA000880B990B08959F3F31F0915020F4879551
:101BB00077956795B795880F911D9695879597F9B5
:101BC000089591505040660F771F881FD2F70895EF
:101BD00097FB072E16F4009407D077FD09D00E94DA
:101BE0001E0E07FC05D03EF4909581959F4F0895F9
:101BF000709561957F4F0895A1E21A2EAA1BBB1B19
:101C0000FD010DC0AA1FBB1FEE1FFF1FA217B307C8
:101C1000E407F50720F0A21BB30BE40BF50B661FDE
:101C2000771F881F991F1A9469F7609570958095A2
:101C300090959B01AC01BD01CF010895AA1BBB1B70
:101C400051E107C0AA1FBB1FA617B70710F0A61BBC
:101C5000B70B881F991F5A95A9F780959095BC01DD
:101C6000CD010895EE0FFF1F0590F491E02D09942A
:041C7000F894FFCF16
:101C74001034303410000000001C027C01A90169FA
:101C840002DA01B801CC010000000029047C0186BD
:101C94000385036E616E00696E66006F766600569A
:101CA400313A2000560056726D730056323A2000C5
:0A1CB40056333A200056343A20005F
:00000001FF
