:020000040000FA
:100000000C9452010C947A010C947A010C947A01AC
:100010000C947A010C947A010C947A010C947A0174
:100020000C947A010C947A010C947A010C947A0164
:100030000C947A010C947A010C947A010C947A0154
:100040000C94EF050C947A010C94BD050C94970563
:100050000C947A010C947A010C947A010C947A0134
:100060000C947A010C947A01000000000000005FFB
:1000700000000007000700147F147F14242A7F2A41
:10008000122313086462364955225000050300000C
:10009000001C2241000041221C0014083E081408E4
:1000A000083E0808005030000008080808080060F2
:1000B00060000020100804023E5149453E00427F86
:1000C000400042615149462141454B311814127F8D
:1000D0001027454545393C4A494930017109050316
:1000E0003649494936064949291E0036360000007E
:1000F0005636000008142241001414141414004150
:100100002214080201510906324979413E7E11113B
:10011000117E7F494949363E414141227F4141227A
:100120001C7F494949417F090909013E4149497AF2
:100130007F0808087F00417F41002040413F017F48
:10014000081422417F404040407F020C027F7F0420
:1001500008107F3E4141413E7F090909063E415159
:10016000215E7F09192946464949493101017F012C
:10017000013F4040403F1F2040201F3F4038403F4C
:100180006314081463070870080761514945430068
:100190007F41410002040810200041417F00040219
:1001A0000102044040404040000102040020545439
:1001B00054787F48444438384444442038444448C0
:1001C0007F3854545418087E0901020C5252523E92
:1001D0007F0804047800447D40002040443D007FB7
:1001E0001028440000417F40007C041804787C08FB
:1001F00004047838444444387C1414140808141453
:10020000187C7C080404084854545420043F44409B
:10021000203C4040207C1C2040201C3C4030403C86
:1002200044281028440C5050503C4464544C440022
:100230000836410000007F00000041360800100829
:100240000810080000000000000000002400270043
:100250002A0000000000250028002B0000000000FC
:1002600023002600290004040404040404040202F8
:100270000202020203030303030301020408102025
:100280004080010204081020010204081020000030
:100290000008000201000003040700000000000045
:1002A0000000390611241FBECFEFD8E0DEBFCDBF5E
:1002B00011E0A0E0B1E0E4E7F6E102C005900D92A4
:1002C000A633B107D9F723E0A6E3B1E001C01D9240
:1002D000AA3BB207E1F711E0C2E5D1E004C02197E3
:1002E000FE010E94320BC135D107C9F70E94780682
:1002F0000C94380B0C94000080E480937C00809177
:100300007A00806480937A0080917A0086FDFCCF29
:1003100080917800909179000895AF92BF92CF922A
:10032000DF92EF92FF920F931F93CF93DF936C01B5
:100330007B018B01040F151FEB015E01AE18BF0896
:10034000C017D10759F06991D601ED91FC91019048
:10035000F081E02DC6010995892B79F7C501DF9160
:10036000CF911F910F91FF90EF90DF90CF90BF90B2
:10037000AF900895FC01538D448D252F30E0842FDC
:1003800090E0821B930B541710F0CF9608950197BD
:100390000895FC01918D828D981761F0A28DAE0FAA
:1003A000BF2FB11D5D968C91928D9F5F9F73928F31
:1003B00090E008958FEF9FEF0895FC01918D828D5D
:1003C000981731F0828DE80FF11D858D90E008952A
:1003D0008FEF9FEF0895FC01918D228D892F90E082
:1003E000805C9F4F821B91098F73992708958FEC32
:1003F00092E00E94EB0121E0892B09F420E0822F9A
:10040000089580E090E0892B29F00E94F701811186
:100410000C9400000895FC01A48DA80FB92FB11D04
:10042000A35ABF4F2C91848D90E001968F7399272A
:10043000848FA689B7892C93A089B1898C91837008
:1004400080648C93938D848D981306C00288F38901
:10045000E02D80818F7D80830895EF92FF920F932E
:100460001F93CF93DF93EC0181E0888F9B8D8C8D60
:1004700098131AC0E889F989808185FF15C09FB754
:10048000F894EE89FF896083E889F9898081837017
:10049000806480839FBF81E090E0DF91CF911F91C6
:1004A0000F91FF90EF900895F62E0B8D10E00F5FE7
:1004B0001F4F0F731127E02E8C8D8E110CC00FB6BD
:1004C00007FCFACFE889F989808185FFF5CFCE0155
:1004D0000E940B02F1CFEB8DEC0FFD2FF11DE35AC3
:1004E000FF4FF0829FB7F8940B8FEA89FB898081D8
:1004F0008062CFCFCF93DF93EC01888D8823B9F052
:10050000AA89BB89E889F9898C9185FD03C080811E
:1005100086FD0DC00FB607FCF7CF8C9185FFF2CF9B
:10052000808185FFEDCFCE010E940B02E9CFDF91E4
:10053000CF910895833081F028F4813099F0823092
:10054000A9F008958730A9F08830C9F08430B1F45B
:10055000809180008F7D03C0809180008F77809391
:100560008000089584B58F7784BD089584B58F7D0C
:10057000FBCF8091B0008F778093B0000895809179
:10058000B0008F7DF9CFCF93DF93282F30E0F901B2
:10059000E257FD4F8491F901E658FD4FD491F901DE
:1005A000EA59FD4FC491CC23A1F081110E949A0217
:1005B000EC2FF0E0EE0FFF1FE45AFD4FA591B49130
:1005C000EC91ED2381E090E009F480E0DF91CF91A0
:1005D000089580E090E0FACF1F93CF93DF93282F08
:1005E00030E0F901E257FD4F8491F901E658FD4FE3
:1005F000D491F901EA59FD4FC491CC23A9F0162FEB
:1006000081110E949A02EC2FF0E0EE0FFF1FEE5ACC
:10061000FD4FA591B4918FB7F894EC91111108C0DA
:10062000D095DE23DC938FBFDF91CF911F9108958A
:10063000DE2BF8CFCF93DF9390E0FC01E658FD4F1F
:1006400024918A599D4FFC0184918823C9F090E040
:10065000880F991FFC01E85BFD4FA591B491FC0147
:10066000EE5AFD4FC591D49161110DC09FB7F8941A
:100670008C91209582238C938881282328839FBF87
:10068000DF91CF910895623051F49FB7F8943C9177
:10069000822F809583238C93E8812E2BEFCF8FB709
:1006A000F894EC912E2B2C938FBFEACF3FB7F894A0
:1006B00080913B0190913C01A0913D01B0913E01A0
:1006C00026B5A89B05C02F3F19F00196A11DB11DAD
:1006D0003FBFBA2FA92F982F8827BC01CD01620FE9
:1006E000711D811D911D42E0660F771F881F991FA4
:1006F0004A95D1F708958F929F92AF92BF92CF9271
:10070000DF92EF92FF924B015C010E9456036B0156
:100710007C010E9456036C197D098E099F09683E71
:10072000734081059105A8F321E0821A9108A10880
:10073000B10888EEC80E83E0D81EE11CF11C8114BC
:100740009104A104B10429F7FF90EF90DF90CF90BE
:10075000BF90AF909F908F900895089590E080E0B3
:100760000895FC0101900020E9F73197AF01481B83
:10077000590BBC018CE693E00C948D018F929F92F3
:10078000AF92BF920F931F93CF93DF93CDB7DEB796
:10079000A1970FB6F894DEBF0FBECDBF19A24230AD
:1007A00008F44AE08E010F5D1F4F842E912CB12C6E
:1007B000A12CA50194010E94FC0AE62FB901CA01EF
:1007C000EA30F4F4E05DD801EE938D01232B242B65
:1007D000252B79F790E080E0109719F0CD010E9469
:1007E000B103A1960FB6F894DEBF0FBECDBFDF9167
:1007F000CF911F910F91BF90AF909F908F900895D0
:10080000E95CE1CFEF92FF920F931F93CF93DF93B9
:10081000EC01042F8E810E94EC0260E088850E942A
:10082000EC02FC80ED8018E0602F661F6627661FD3
:100830008E2D0E94EC02000F61E08F2D0E94EC02D1
:1008400060E08F2D0E94EC02115071F761E0888505
:10085000DF91CF911F910F91FF90EF900C94EC02DC
:10086000CF93DF93CCE6D3E01C861D8640E860E0A2
:10087000CE010E9402044D85406460E0CE01DF910C
:10088000CF910C940204CF92DF92EF92FF920F93DC
:100890001F93CF93DF9300D000D01F92CDB7DEB768
:1008A00067FD66C07C01862F90E0603208F44FC07F
:1008B000809725E0289FB001299F700D1124685969
:1008C0007F4F45E050E0CE0101960E9448088E011E
:1008D0000F5F1F4F680185E0C80ED11CF8014191E0
:1008E0008F0161E0C7010E9402040C151D05B1F7DC
:1008F00040E061E0C7010E940204F701848590E0B6
:100900000696628570E00E94E80A8487892B79F454
:10091000858590E00196638529E3629F612D11240E
:10092000669570E06F5F7F4F0E94E80A858781E0DF
:1009300090E00F900F900F900F900F90DF91CF915C
:100940001F910F91FF90EF90DF90CF900895FC01E1
:100950003796EE0FFF1FEE0DFF1D0081118101156F
:10096000110509F0B7CF45E050E068E670E0ABCF85
:1009700090E080E0DECF4F925F926F927F928F92F5
:100980009F92AF92BF92CF92DF92EF92FF920F931E
:100990001F93CF936B017C01742EAC019B010E94CD
:1009A000CE0A882399F083E291E0CF911F910F91B5
:1009B000FF90EF90DF90CF90BF90AF909F908F907F
:1009C0007F906F905F904F900C94B1034601570158
:1009D000E894B7F82FEF3FEF4FE75FE7C501B401A9
:1009E0000E94CE0A81110DC02FEF3FEF4FE75FE766
:1009F000C501B4010E94BE0818161CF487E291E0FC
:100A0000D4CF2FEF3FEF4FE75FE4C701B6010E945D
:100A1000160A18161CF48BE291E0C7CF2FEF3FEFB8
:100A20004FE75FECC701B6010E94BE0887FDF3CF18
:100A300020E030E0A901C701B6010E94BE0810E025
:100A400000E087FF0AC06DE28CE693E00E94430459
:100A50008C01F7FAF094F7F8F094C0E060E070E0F1
:100A600080E09FE37C1641F020E030E040E251E47A
:100A70000E94C308CF5FF6CFA70196010E945208DB
:100A80002B013C010E9435094B015C014AE00E94A8
:100A9000BE037C01E00EF11ECC23C1F1C501B401FF
:100AA0000E9464099B01AC01C301B2010E9451087C
:100AB0004B015C016EE28CE693E00E944304E80E79
:100AC000F91EC15018F120E030E040E251E4C501C8
:100AD000B4010E941B0A2B013C010E9435094B0105
:100AE000B12CA12C4AE0C501B4010E94BE03E80E5E
:100AF000F91EC501B4010E9464099B01AC01C30148
:100B0000B2010E9451084B015C01DBCFC701CF91BC
:100B10001F910F91FF90EF90DF90CF90BF90AF901B
:100B20009F908F907F906F905F904F9008951F924D
:100B30000F920FB60F9211242F933F934F935F9311
:100B40006F937F938F939F93AF93BF93EF93FF9395
:100B50008FEC92E00E940B02FF91EF91BF91AF9159
:100B60009F918F917F916F915F914F913F912F91C5
:100B70000F900FBE0F901F9018951F920F920FB6F7
:100B80000F9211242F938F939F93EF93FF93E091F4
:100B9000DF02F091E0028081E091E502F091E6024F
:100BA00082FD1BC090818091E8028F5F8F7320913E
:100BB000E902821741F0E091E802F0E0E153FD4FD5
:100BC000958F8093E802FF91EF919F918F912F91E4
:100BD0000F900FBE0F901F9018958081F4CF1F9239
:100BE0000F920FB60F9211242F933F938F939F93E1
:100BF000AF93BF938091370190913801A091390153
:100C0000B0913A013091360123E0230F2D3758F58A
:100C10000196A11DB11D2093360180933701909359
:100C20003801A0933901B0933A0180913B01909132
:100C30003C01A0913D01B0913E010196A11DB11D65
:100C400080933B0190933C01A0933D01B0933E0102
:100C5000BF91AF919F918F913F912F910F900FBEB8
:100C60000F901F90189526E8230F0296A11DB11D25
:100C7000D2CFEFECF2E01382128288EE93E0A0E094
:100C8000B0E084839583A683B78389E091E0918364
:100C9000808385EC90E09587848784EC90E097874B
:100CA000868780EC90E0918B808B81EC90E0938B39
:100CB000828B82EC90E0958B848B86EC90E0978B16
:100CC000868B118E128E138E148EECE6F3E0138257
:100CD00012828BE191E09183808383E0848384E0BE
:100CE000858385E0868386E0878387E08087089513
:100CF000789484B5826084BD84B5816084BD85B5F7
:100D0000826085BD85B5816085BD80916E00816002
:100D100080936E00109281008091810082608093A8
:100D200081008091810081608093810080918000AA
:100D30008160809380008091B10084608093B100D5
:100D40008091B00081608093B00080917A008460CF
:100D500080937A0080917A00826080937A008091FB
:100D60007A00816080937A0080917A008068809315
:100D70007A001092C100E091DF02F091E00282E07F
:100D80008083E091DB02F091DC021082E091DD02D1
:100D9000F091DE028FEC80831092E702E091E30293
:100DA000F091E40286E08083E091E102F091E202BA
:100DB000808180618083E091E102F091E202808194
:100DC00088608083E091E102F091E2028081806896
:100DD0008083E091E102F091E20280818F7D808347
:100DE00060E08EE00E941A0384E58093760380E33E
:100DF0008093770310927503109278031092790311
:100E0000EAE7F3E080E4DF011D928A95E9F761E00B
:100E1000809170030E941A0361E0809171030E9427
:100E20001A0361E0809172030E941A0361E08091CD
:100E300073030E941A0361E0809174030E941A03F5
:100E400061E0809173030E94EC0261E08091740381
:100E50000E94EC0260E0809173030E94EC0264E661
:100E600070E080E090E00E947B0361E0809173037A
:100E70000E94EC0241E260E08CE693E00E940204F2
:100E800043E160E08CE693E00E94020480917503E8
:100E900042EC813039F440EE60E08CE693E00E9451
:100EA000020445E060E08CE693E00E94020440E228
:100EB00060E08CE693E00E94020449E060E08CE68A
:100EC00093E00E9402040E943004D0E0C0E08091D0
:100ED000770386958695869590917603899FC001C4
:100EE0001124C817D90740F440E061E08CE693E094
:100EF0000E9402042196EBCF0E94300448E060E09B
:100F00008CE693E00E9402044CE060E08CE693E003
:100F10000E94020464E670E080E090E00E947B039F
:100F200040E860E08CE693E00E94020440E460E068
:100F30008CE693E00E94020480E091E090937B03B2
:100F400080937A0362E085E00E941A038FECC82E3A
:100F500082E0D82E90E0E92E90E0F92E83E10E9405
:100F6000C302EC0185E00E94C302CD2BD9F10E949F
:100F70007C01EC010E9430048FE291E00E94B103F9
:100F8000BE01DD0F880B990B0E9466099B01AC0125
:100F900060E070E88FEF93E40E94510820E030E0B9
:100FA00044E452E40E941B0A20E030EC4FE754E492
:100FB0000E94C30842E00E94BB0484E391E00E94C7
:100FC000B10368EE73E080E090E00E947B03E114DF
:100FD000F10421F20E94F701882309F4BFCF0E9497
:100FE0000000BCCF0FE311E0E8010E947C01BC01CE
:100FF000990F880B990B0E946609699379938993DD
:10100000999361E070E080E090E00E947B03CC1651
:10101000DD0659F7812C912C5401F8012191319171
:10102000419151918F0160E070E88FEF93E40E944D
:10103000510820E030E040E652E40E941B0A20E024
:1010400030EC4FE754E40E94C3089B01AC010E94BE
:101050001B0A9B01AC01C501B4010E9452084B015F
:101060005C01C017D107C9F620E030E048EC52E43B
:101070000E94C3080E948E0A4B015C010E9430044A
:101080008FE291E00E94B10342E0C501B40193CF29
:10109000FB01DC0102C005900D9241505040D8F791
:1010A00008955058BB27AA270E9469080C94DC09B0
:1010B0000E94CE0938F00E94D50920F039F49F3FF4
:1010C00019F426F40C94CB090EF4E095E7FB0C948C
:1010D000C509E92F0E94ED0958F3BA176207730793
:1010E0008407950720F079F4A6F50C940F0A0EF406
:1010F000E0950B2EBA2FA02D0B01B90190010C0128
:10110000CA01A0011124FF27591B99F0593F50F43F
:10111000503E68F11A16F040A22F232F342F442797
:10112000585FF3CF469537952795A795F04053958F
:10113000C9F77EF41F16BA0B620B730B840BBAF05F
:101140009150A1F0FF0FBB1F661F771F881FC2F7CA
:101150000EC0BA0F621F731F841F48F487957795DE
:101160006795B795F7959E3F08F0B0CF9395880F98
:1011700008F09927EE0F9795879508950E94A10989
:1011800008F481E008950E94D7080C94DC090E94BD
:10119000D50958F00E94CE0940F029F45F3F29F0AC
:1011A0000C94C50951110C94100A0C94CB090E949F
:1011B000ED0968F39923B1F3552391F3951B550B72
:1011C000BB27AA2762177307840738F09F5F5F4F1A
:1011D000220F331F441FAA1FA9F335D00E2E3AF059
:1011E000E0E832D091505040E695001CCAF72BD071
:1011F000FE2F29D0660F771F881FBB1F26173707C2
:101200004807AB07B0E809F0BB0B802DBF01FF27F3
:1012100093585F4F3AF09E3F510578F00C94C50902
:101220000C94100A5F3FE4F3983ED4F386957795CB
:101230006795B795F7959F5FC9F7880F911D9695AC
:10124000879597F90895E1E0660F771F881FBB1F08
:10125000621773078407BA0720F0621B730B840BB5
:10126000BA0BEE1F88F7E09508950E94F50988F003
:101270009F5798F0B92F9927B751B0F0E1F0660F5A
:10128000771F881F991F1AF0BA95C9F714C0B1309B
:1012900091F00E940F0AB1E008950C940F0A672F95
:1012A000782F8827B85F39F0B93FCCF386957795CA
:1012B0006795B395D9F73EF49095809570956195B3
:1012C0007F4F8F4F9F4F0895E89409C097FB3EF4DE
:1012D00090958095709561957F4F8F4F9F4F992383
:1012E000A9F0F92F96E9BB279395F6958795779501
:1012F0006795B795F111F8CFFAF4BB0F11F460FFC1
:101300001BC06F5F7F4F8F4F9F4F16C0882311F018
:1013100096E911C0772321F09EE8872F762F05C02C
:10132000662371F096E8862F70E060E02AF09A95C7
:10133000660F771F881FDAF7880F9695879597F9BC
:101340000895990F0008550FAA0BE0E8FEEF161656
:101350001706E807F907C0F012161306E407F507A9
:1013600098F0621B730B840B950B39F40A2661F01D
:10137000232B242B252B21F408950A2609F4A140C0
:10138000A6958FEF811D811D089597F99F6780E8CD
:1013900070E060E008959FEF80EC089500240A94C7
:1013A0001616170618060906089500240A94121640
:1013B0001306140605060895092E0394000C11F473
:1013C000882352F0BB0F40F4BF2B11F460FF04C020
:1013D0006F5F7F4F8F4F9F4F089557FD9058440F79
:1013E000551F59F05F3F71F04795880F97FB991F84
:1013F00061F09F3F79F08795089512161306140641
:10140000551FF2CF4695F1DF08C0161617061806CD
:10141000991FF1CF86957105610508940895E894A8
:10142000BB2766277727CB0197F908950E94A1096A
:1014300008F48FEF08950E942E0A0C94DC090E9494
:10144000CE0938F00E94D50920F0952311F00C94B4
:10145000C5090C94CB0911240C94100A0E94ED09C3
:1014600070F3959FC1F3950F50E0551F629FF001F7
:10147000729FBB27F00DB11D639FAA27F00DB11D10
:10148000AA1F649F6627B00DA11D661F829F222799
:10149000B00DA11D621F739FB00DA11D621F839F20
:1014A000A00D611D221F749F3327A00D611D231FF6
:1014B000849F600D211D822F762F6A2F11249F5744
:1014C00050409AF0F1F088234AF0EE0FFF1FBB1F47
:1014D000661F771F881F91505040A9F79E3F510506
:1014E00080F00C94C5090C94100A5F3FE4F3983E19
:1014F000D4F3869577956795B795F795E7959F5FB0
:10150000C1F7FE2B880F911D9695879597F9089541
:1015100019F416F40C94CB090C94D30A0E94F50923
:10152000B8F39923C9F3B6F39F57550B87FF0E9471
:10153000E10A0024A0E640EA90018058569597956C
:1015400028F4805C660F771F881F20F02617370766
:10155000480730F4621B730B840B202931294A2B76
:10156000A69517940794202531254A2758F7660F2A
:10157000771F881F20F026173707480730F4620BC3
:10158000730B840B200D311D411DA09581F7B9010E
:10159000842F9158880F9695879508950E94A109E8
:1015A000880B990B08959F3F31F0915020F4879557
:1015B00077956795B795880F911D9695879597F9BB
:1015C000089591505040660F771F881FD2F70895F5
:1015D00097FB072E16F4009407D077FD09D00E94E0
:1015E0001E0B07FC05D03EF4909581959F4F089502
:1015F000709561957F4F0895A1E21A2EAA1BBB1B1F
:10160000FD010DC0AA1FBB1FEE1FFF1FA217B307CE
:10161000E407F50720F0A21BB30BE40BF50B661FE4
:10162000771F881F991F1A9469F7609570958095A8
:1016300090959B01AC01BD01CF010895AA1BBB1B76
:1016400051E107C0AA1FBB1FA617B70710F0A61BC2
:10165000B70B881F991F5A95A9F780959095BC01E3
:10166000CD010895EE0FFF1F0590F491E02D099430
:10167000F894FFCF1034303410000000002D028D9C
:1016800001BA017A02EB01C901DD0100000000434B
:10169000048D01AE03AD036E616E00696E66006F6E
:0A16A00076660056313A200056002D
:107E0000112484B714BE81FFF0D085E080938100F7
:107E100082E08093C00088E18093C10086E0809377
:107E2000C20080E18093C4008EE0C9D0259A86E02C
:107E300020E33CEF91E0309385002093840096BBD3
:107E4000B09BFECF1D9AA8958150A9F7CC24DD24C4
:107E500088248394B5E0AB2EA1E19A2EF3E0BF2EE7
:107E6000A2D0813461F49FD0082FAFD0023811F036
:107E7000013811F484E001C083E08DD089C08234E0
:107E800011F484E103C0853419F485E0A6D080C0E4
:107E9000853579F488D0E82EFF2485D0082F10E0AE
:107EA000102F00270E291F29000F111F8ED06801E7
:107EB0006FC0863521F484E090D080E0DECF843638
:107EC00009F040C070D06FD0082F6DD080E0C81688
:107ED00080E7D80618F4F601B7BEE895C0E0D1E017
:107EE00062D089930C17E1F7F0E0CF16F0E7DF06D8
:107EF00018F0F601B7BEE89568D007B600FCFDCFD4
:107F0000A601A0E0B1E02C9130E011968C91119780
:107F100090E0982F8827822B932B1296FA010C0160
:107F200087BEE89511244E5F5F4FF1E0A038BF0790
:107F300051F7F601A7BEE89507B600FCFDCF97BE46
:107F4000E89526C08437B1F42ED02DD0F82E2BD052
:107F50003CD0F601EF2C8F010F5F1F4F84911BD097
:107F6000EA94F801C1F70894C11CD11CFA94CF0C13
:107F7000D11C0EC0853739F428D08EE10CD085E9AC
:107F80000AD08FE07ACF813511F488E018D01DD067
:107F900080E101D065CF982F8091C00085FFFCCF94
:107FA0009093C60008958091C00087FFFCCF809118
:107FB000C00084FD01C0A8958091C6000895E0E648
:107FC000F0E098E1908380830895EDDF803219F02E
:107FD00088E0F5DFFFCF84E1DECF1F93182FE3DFCA
:107FE0001150E9F7F2DF1F91089580E0E8DFEE27F6
:047FF000FF270994CA
:027FFE00040479
:00000001FF
