:100000000C9452010C947A010C947A010C947A01AC
:100010000C947A010C947A010C947A010C947A0174
:100020000C947A010C947A010C947A010C947A0164
:100030000C947A010C947A010C947A010C947A0154
:100040000C9400060C947A010C94CE050C94A8052F
:100050000C947A010C947A010C947A010C947A0134
:100060000C947A010C947A01000000000000005FFB
:1000700000000007000700147F147F14242A7F2A41
:10008000122313086462364955225000050300000C
:10009000001C2241000041221C0014083E081408E4
:1000A000083E0808005030000008080808080060F2
:1000B00060000020100804023E5149453E00427F86
:1000C000400042615149462141454B311814127F8D
:1000D0001027454545393C4A494930017109050316
:1000E0003649494936064949291E0036360000007E
:1000F0005636000008142241001414141414004150
:100100002214080201510906324979413E7E11113B
:10011000117E7F494949363E414141227F4141227A
:100120001C7F494949417F090909013E4149497AF2
:100130007F0808087F00417F41002040413F017F48
:10014000081422417F404040407F020C027F7F0420
:1001500008107F3E4141413E7F090909063E415159
:10016000215E7F09192946464949493101017F012C
:10017000013F4040403F1F2040201F3F4038403F4C
:100180006314081463070870080761514945430068
:100190007F41410002040810200041417F00040219
:1001A0000102044040404040000102040020545439
:1001B00054787F48444438384444442038444448C0
:1001C0007F3854545418087E0901020C5252523E92
:1001D0007F0804047800447D40002040443D007FB7
:1001E0001028440000417F40007C041804787C08FB
:1001F00004047838444444387C1414140808141453
:10020000187C7C080404084854545420043F44409B
:10021000203C4040207C1C2040201C3C4030403C86
:1002200044281028440C5050503C4464544C440022
:100230000836410000007F00000041360800100829
:100240000810080000000000000000002400270043
:100250002A0000000000250028002B0000000000FC
:1002600023002600290004040404040404040202F8
:100270000202020203030303030301020408102025
:100280004080010204081020010204081020000030
:100290000008000201000003040700000000000045
:1002A00000004A0611241FBECFEFD8E0DEBFCDBF4D
:1002B00011E0A0E0B1E0E4E4F7E102C005900D92A6
:1002C000A633B107D9F723E0A6E3B1E001C01D9240
:1002D000A23CB207E1F711E0C2E5D1E004C02197EA
:1002E000FE010E94950BC135D107C9F70E9489060E
:1002F0000C94A00B0C94000080E480937C0080910F
:100300007A00806480937A0080917A0086FDFCCF29
:1003100080917800909179000895CF92DF92EF92CA
:10032000FF920F931F93CF93DF936C017A018B01A0
:10033000C0E0D0E0CE15DF0581F0D8016D918D01D0
:10034000D601ED91FC910190F081E02DC601099557
:10035000892B11F02196EECF7E01C701DF91CF915D
:100360001F910F91FF90EF90DF90CF900895FC01C7
:10037000538D448D252F30E0842F90E0821B930B0A
:10038000541710F0CF96089501970895FC01918DB0
:10039000828D981761F0828DDF01A80FB11D5D96E7
:1003A0008C91928D9F5F9F73928F90E008958FEF55
:1003B0009FEF0895FC01918D828D981731F0828D09
:1003C000E80FF11D858D90E008958FEF9FEF089560
:1003D000FC01918D228D892F90E0805C9F4F821BC4
:1003E00091098F739927089587ED92E00E94E801A3
:1003F00021E0892B09F420E0822F0895FC01848DEF
:10040000DF01A80FB11DA35ABF4F2C91848D90E03E
:1004100001968F739927848FA689B7892C93A08919
:10042000B1898C91837080648C93938D848D9813A3
:1004300006C00288F389E02D80818F7D8083089536
:10044000EF92FF920F931F93CF93DF93EC0181E024
:10045000888F9B8D8C8D981305C0E889F9898081E0
:1004600085FD26C0F62E0B8D10E00F5F1F4F0F731A
:100470001127E02E8C8DE8120CC00FB607FCFACFC6
:10048000E889F989808185FFF5CFCE010E94FE01C0
:10049000F1CF8B8DFE01E80FF11DE35AFF4FF08283
:1004A0009FB7F8940B8FEA89FB89808180620AC02C
:1004B0009FB7F894EE89FF896083E889F989808184
:1004C0008370806480839FBF81E090E0DF91CF9153
:1004D0001F910F91FF90EF900895CF93DF93EC0160
:1004E000888D8823C9F0EA89FB89808185FD05C054
:1004F000A889B9898C9186FD0FC00FB607FCF5CF8E
:10050000808185FFF2CFA889B9898C9185FFEDCFD5
:10051000CE010E94FE01E7CFDF91CF91089580E0E8
:1005200090E0892B29F00E94F40181110C940000C5
:100530000895833081F028F4813099F08230A1F061
:1005400008958730A9F08830B9F08430D1F48091D3
:1005500080008F7D03C0809180008F778093800022
:10056000089584B58F7702C084B58F7D84BD0895CA
:100570008091B0008F7703C08091B0008F7D809311
:10058000B0000895CF93DF93282F30E0F901E257B0
:10059000FD4F8491F901E658FD4FD491F901EA59D4
:1005A000FD4FC491CC2391F081110E949902EC2F50
:1005B000F0E0EE0FFF1FE45AFD4FA591B491EC91CE
:1005C000ED2381E090E021F480E002C080E090E043
:1005D000DF91CF9108951F93CF93DF93282F30E0C1
:1005E000F901E257FD4F8491F901E658FD4FD4918E
:1005F000F901EA59FD4FC491CC23C1F0162F8111A6
:100600000E949902EC2FF0E0EE0FFF1FEE5AFD4F13
:10061000A591B4919FB7F894111104C08C91D09515
:10062000D82302C0EC91DE2BDC939FBFDF91CF91EA
:100630001F910895CF93DF9390E0FC01E658FD4FA2
:100640002491FC01EA59FD4F8491882361F190E0E7
:10065000880F991FFC01E85BFD4FC591D491FC0107
:10066000EE5AFD4FA591B491611109C09FB7F8945E
:100670008881209582238883EC912E230BC06230E1
:1006800061F49FB7F8948881322F30958323888353
:10069000EC912E2B2C939FBF06C08FB7F894E88166
:1006A0002E2B28838FBFDF91CF9108953FB7F89409
:1006B00080913B0190913C01A0913D01B0913E01A0
:1006C00026B5A89B05C02F3F19F00196A11DB11DAD
:1006D0003FBFBA2FA92F982F8827820F911DA11DE8
:1006E000B11DBC01CD0142E0660F771F881F991F25
:1006F0004A95D1F708958F929F92AF92BF92CF9271
:10070000DF92EF92FF926B017C010E9456034B0136
:100710005C01C114D104E104F104F1F00E9456031C
:10072000DC01CB0188199909AA09BB09883E9340CD
:10073000A105B10570F321E0C21AD108E108F10862
:1007400088EE880E83E0981EA11CB11CC114D10450
:10075000E104F10419F7DDCFFF90EF90DF90CF9027
:10076000BF90AF909F908F900895089580E090E0A3
:100770000895009769F0FC0101900020E9F7319796
:10078000AF01481B590BBC0184E793E00C948D0129
:1007900080E090E00895EF92FF920F931F93CF9324
:1007A000DF93EC01042F8E810E94EB0260E08885CC
:1007B0000E94EB02FC80ED8018E0602F661F662728
:1007C000661F8E2D0E94EB02000F61E08F2D0E94AC
:1007D000EB0260E08F2D0E94EB02115071F761E097
:1007E0008885DF91CF911F910F91FF90EF900C942E
:1007F000EB02CF93DF93C4E7D3E01C861D8640E86D
:1008000060E0CE010E94CB034D85406460E0CE01E4
:10081000DF91CF910C94CB030E949B0BCF92DF9280
:10082000EF92FF920F931F93CF93DF9300D000D0EE
:100830001F92CDB7DEB767FD57C07C01862F90E0D1
:10084000603260F0809725E0289FB001299F700DED
:10085000112468597F4F45E050E00FC0FC013796E6
:10086000EE0FFF1FEE0DFF1D008111810115110517
:1008700059F445E050E068E670E0CE0101960E9430
:10088000AB088E010F5F1F4F680185E0C80ED11CB9
:10089000F80141918F0161E0C7010E94CB030C1563
:1008A0001D05B1F740E061E0C7010E94CB03F701ED
:1008B000848590E00696628570E00E944B0B8487E9
:1008C000811115C0258530E02F5F3F4F938569E387
:1008D000969F612D1124669570E06F5F7F4FC9016F
:1008E0000E944B0B858703C080E090E002C081E04E
:1008F00090E00F900F900F900F900F90DF91CF919D
:100900001F910F91FF90EF90DF90CF9008952F925D
:100910003F924F925F926F927F928F929F92AF928F
:10092000BF92CF92DF92EF92FF920F931F93CF93DC
:10093000DF93CDB7DEB7A4970FB6F894DEBF0FBE36
:10094000CDBF4B015C01F42E9B01AC010E94310B29
:10095000882319F083E291E027C024013501E8944F
:1009600077F82FEF3FEF4FE75FE7C301B2010E9437
:10097000310B81110DC02FEF3FEF4FE75FE7C30150
:10098000B2010E94210918161CF487E291E00CC004
:100990002FEF3FEF4FE75FE4C501B4010E94790AF2
:1009A00018162CF48BE291E00E94B903B8C02FEF27
:1009B0003FEF4FE75FECC501B4010E94210987FDBD
:1009C000F1CF20E030E0A901C501B4010E94210966
:1009D00087FF0BC06DE284E793E00E940E043C01A8
:1009E000B7FAB094B7F8B09402C0612C712C10E043
:1009F00060E070E080E09FE3F11641F020E030E03D
:100A000040E251E40E9426091F5FF6CFA501940140
:100A10000E94B5084B015C010E9498096AA3C72E89
:100A2000D82EE92E19A2262F372F482F592F8E01A5
:100A30000F5D1F4F0BA31CA39AE0292E312C412CD4
:100A4000512CCA01B901A20191010E945F0B605DA6
:100A5000F80162938F01211531054105510589F790
:100A6000CF010E94B9038301080F191FFF2009F469
:100A700055C06AA17C2D8D2D9E2D0E94C7099B011A
:100A8000AC01C501B4010E94B4084B015C016EE2E7
:100A900084E793E00E940E04080F191F8AE0282EB5
:100AA000312C412C512C20E030E040E251E4C501D2
:100AB000B4010E947E0A4B015C010E9498099B01CF
:100AC00040E050E019A2CBA0DCA0762E3AA3642E21
:100AD000E52ECA01B901A20191010E945F0B605D80
:100AE000F60162936F01211531054105510589F722
:100AF000CF010E94B903080F191F672D7AA1862D17
:100B00009E2D0E94C7099B01AC01C501B4010E9442
:100B1000B4084B015C01FA94F110C5CFC801A4964A
:100B20000FB6F894DEBF0FBECDBFDF91CF911F91FE
:100B30000F91FF90EF90DF90CF90BF90AF909F907C
:100B40008F907F906F905F904F903F902F9008957F
:100B50001F920F920FB60F9211242F933F934F9332
:100B60005F936F937F938F939F93AF93BF93EF9315
:100B7000FF9387ED92E00E94FE01FF91EF91BF91FC
:100B8000AF919F918F917F916F915F914F913F9125
:100B90002F910F900FBE0F901F9018951F920F92DC
:100BA0000FB60F9211242F938F939F93EF93FF9380
:100BB000E091E702F091E8028081E091ED02F0918E
:100BC000EE0282FD12C090818091F0028F5F8F73E0
:100BD0002091F102821751F0E091F002F0E0E95229
:100BE000FD4F958F8093F00201C08081FF91EF91BE
:100BF0009F918F912F910F900FBE0F901F9018957E
:100C00001F920F920FB60F9211242F933F938F9341
:100C10009F93AF93BF938091370190913801A0913A
:100C20003901B0913A013091360123E0230F2D377D
:100C300020F40196A11DB11D05C026E8230F0296E0
:100C4000A11DB11D20933601809337019093380187
:100C5000A0933901B0933A0180913B0190913C01FE
:100C6000A0913D01B0913E010196A11DB11D80935F
:100C70003B0190933C01A0933D01B0933E01BF9195
:100C8000AF919F918F913F912F910F900FBE0F9039
:100C90001F901895E7EDF2E01382128288EE93E040
:100CA000A0E0B0E084839583A683B78389E091E0D8
:100CB0009183808385EC90E09587848784EC90E035
:100CC0009787868780EC90E0918B808B81EC90E019
:100CD000938B828B82EC90E0958B848B86EC90E0FA
:100CE000978B868B118E128E138E148EE4E7F3E0B1
:100CF000138212828BE191E09183808383E084836D
:100D000084E0858385E0868386E0878387E080872B
:100D10000895789484B5826084BD84B5816084BD73
:100D200085B5826085BD85B5816085BD80916E0089
:100D3000816080936E0010928100809181008260BA
:100D400080938100809181008160809381008091F7
:100D500080008160809380008091B10084608093E6
:100D6000B1008091B00081608093B00080917A00E2
:100D7000846080937A0080917A00826080937A0008
:100D800080917A00816080937A0080917A008068F7
:100D900080937A001092C100E091E702F091E8029E
:100DA00082E08083E091E302F091E4021082E0911E
:100DB000E502F091E6028FEC80831092EF02E09161
:100DC000EB02F091EC0286E08083E091E902F09181
:100DD000EA02808180618083E091E902F091EA0279
:100DE000808188608083E091E902F091EA0280814D
:100DF00080688083E091E902F091EA0280818F7D32
:100E0000808360E08EE00E941A0384E580937E0375
:100E100080E380937F0310927D03109280031092F1
:100E2000810380E4E2E8F3E0DF011D928A95E9F7AF
:100E300061E0809178030E941A0361E08091790358
:100E40000E941A0361E080917A030E941A0361E014
:100E500080917B030E941A0361E080917C030E94D1
:100E60001A0361E080917B030E94EB0261E08091B4
:100E70007C030E94EB0260E080917B030E94EB0206
:100E800064E670E080E090E00E947B0361E0809186
:100E90007B030E94EB0241E260E084E793E00E9462
:100EA000CB0343E160E084E793E00E94CB038091B1
:100EB0007D03813041F440EE60E084E793E00E94DE
:100EC000CB0345E001C042EC60E084E793E00E9480
:100ED000CB0340E260E084E793E00E94CB0349E06B
:100EE00060E084E793E00E94CB030E94F903C0E036
:100EF000D0E090917E0380917F03869586958695BC
:100F0000989FC0011124C817D90740F440E061E060
:100F100084E793E00E94CB032196EBCF0E94F90374
:100F200048E060E084E793E00E94CB034CE060E09F
:100F300084E793E00E94CB0364E670E080E090E0F9
:100F40000E947B0340E860E084E793E00E94CB03CB
:100F500040E460E084E793E00E94CB0361E088E036
:100F60000E941A0380E091E09093830380938203B0
:100F700062E085E00E941A038FECA82E82E0B82E72
:100F800083E10E94C202EC0185E00E94C202CD2BE7
:100F900099F10E947C01BC01990F880B990B0E946A
:100FA000C9099B01AC0160E070E88FEF93E40E94F7
:100FB000B40820E030E044E452E40E947E0A20E0DD
:100FC00030EC4FE754E40E9426096093D3027093FB
:100FD000D4028093D5029093D6020E94F9038FE247
:100FE00091E00E94B9036091D3027091D402809184
:100FF000D5029091D60261C0CFE3D1E08E010E946C
:101000007C01BC01990F880B990B0E94C909F8015A
:1010100061937193819391938F0161E070E080E01F
:1010200090E00E947B03F2E00F3C1F0741F7C12CC8
:10103000D12C7601299139914991599160E070E85C
:101040008FEF93E40E94B40820E030E040E652E4E1
:101050000E947E0A20E030EC4FE754E40E9426090B
:101060009B01AC010E947E0A9B01AC01C701B60145
:101070000E94B5086B017C01AC16BD06D9F620E0D4
:1010800030E048EC52E40E9426090E94F10A609385
:10109000CF027093D0028093D1029093D2020E942B
:1010A000F9038FE291E00E94B9036091CF02709141
:1010B000D0028091D1029091D20242E00E94870436
:1010C00084E391E00E94B9034090CF025090D00297
:1010D0006090D1027090D20220E030E048E551E407
:1010E000C301B2010E94790A181634F1C090D302EC
:1010F000D090D402E090D502F090D60220E030E00B
:1011000040EA51E4C701B6010E94790A1816A4F01A
:1011100020E030E048E551ECC301B2010E94210912
:1011200087FD0AC020E030E040EA51ECC701B6017B
:101130000E94210987FF02C061E001C060E088E0F1
:101140000E94EB0268EE73E080E090E00E947B0377
:101150000E948F0215CFFB01DC0102C005900D92A9
:1011600041505040D8F708955058BB27AA270E94F5
:10117000CC080C943F0A0E94310A38F00E94380AC9
:1011800020F039F49F3F19F426F40C942E0A0EF443
:10119000E095E7FB0C94280AE92F0E94500A58F3C7
:1011A000BA17620773078407950720F079F4A6F54C
:1011B0000C94720A0EF4E0950B2EBA2FA02D0B01A1
:1011C000B90190010C01CA01A0011124FF27591B8C
:1011D00099F0593F50F4503E68F11A16F040A22F92
:1011E000232F342F4427585FF3CF46953795279503
:1011F000A795F0405395C9F77EF41F16BA0B620B02
:10120000730B840BBAF09150A1F0FF0FBB1F661F48
:10121000771F881FC2F70EC0BA0F621F731F841F8B
:1012200048F4879577956795B795F7959E3F08F0B1
:10123000B0CF9395880F08F09927EE0F9795879573
:1012400008950E94040A08F481E008950E943A0972
:101250000C943F0A0E94380A58F00E94310A40F06C
:1012600029F45F3F29F00C94280A51110C94730A59
:101270000C942E0A0E94500A68F39923B1F3552367
:1012800091F3951B550BBB27AA2762177307840799
:1012900038F09F5F5F4F220F331F441FAA1FA9F32F
:1012A00035D00E2E3AF0E0E832D091505040E6951D
:1012B000001CCAF72BD0FE2F29D0660F771F881F7E
:1012C000BB1F261737074807AB07B0E809F0BB0B71
:1012D000802DBF01FF2793585F4F3AF09E3F510585
:1012E00078F00C94280A0C94730A5F3FE4F3983E5C
:1012F000D4F3869577956795B795F7959F5FC9F76E
:10130000880F911D9695879597F90895E1E0660FEE
:10131000771F881FBB1F621773078407BA0720F067
:10132000621B730B840BBA0BEE1F88F7E0950895D0
:101330000E94580A88F09F5798F0B92F9927B75103
:10134000B0F0E1F0660F771F881F991F1AF0BA9569
:10135000C9F714C0B13091F00E94720AB1E008954B
:101360000C94720A672F782F8827B85F39F0B93F3D
:10137000CCF3869577956795B395D9F73EF490951C
:101380008095709561957F4F8F4F9F4F0895E8949A
:1013900009C097FB3EF490958095709561957F4FBD
:1013A0008F4F9F4F9923A9F0F92F96E9BB2793956B
:1013B000F695879577956795B795F111F8CFFAF47B
:1013C000BB0F11F460FF1BC06F5F7F4F8F4F9F4FAC
:1013D00016C0882311F096E911C0772321F09EE80A
:1013E000872F762F05C0662371F096E8862F70E070
:1013F00060E02AF09A95660F771F881FDAF7880F4A
:101400009695879597F90895990F0008550FAA0B9F
:10141000E0E8FEEF16161706E807F907C0F0121607
:101420001306E407F50798F0621B730B840B950B0A
:1014300039F40A2661F0232B242B252B21F408955F
:101440000A2609F4A140A6958FEF811D811D0895FC
:1014500097F99F6780E870E060E008959FEF80EC67
:10146000089500240A94161617061806090608950A
:1014700000240A9412161306140605060895092E70
:101480000394000C11F4882352F0BB0F40F4BF2BDF
:1014900011F460FF04C06F5F7F4F8F4F9F4F08951F
:1014A00057FD9058440F551F59F05F3F71F0479515
:1014B000880F97FB991F61F09F3F79F087950895FA
:1014C000121613061406551FF2CF4695F1DF08C019
:1014D000161617061806991FF1CF86957105610536
:1014E00008940895E894BB2766277727CB0197F9DE
:1014F00008950E94040A08F48FEF08950E94910A4B
:101500000C943F0A0E94310A38F00E94380A20F0F9
:10151000952311F00C94280A0C942E0A11240C9493
:10152000730A0E94500A70F3959FC1F3950F50E023
:10153000551F629FF001729FBB27F00DB11D639F85
:10154000AA27F00DB11DAA1F649F6627B00DA11D2B
:10155000661F829F2227B00DA11D621F739FB00DD1
:10156000A11D621F839FA00D611D221F749F332741
:10157000A00D611D231F849F600D211D822F762FDA
:101580006A2F11249F5750409AF0F1F088234AF0B7
:10159000EE0FFF1FBB1F661F771F881F9150504023
:1015A000A9F79E3F510580F00C94280A0C94730A09
:1015B0005F3FE4F3983ED4F3869577956795B795AA
:1015C000F795E7959F5FC1F7FE2B880F911D9695C4
:1015D000879597F9089519F416F40C942E0A0C9433
:1015E000360B0E94580AB8F39923C9F3B6F39F57F4
:1015F000550B87FF0E94440B0024A0E640EA9001AF
:1016000080585695979528F4805C660F771F881F41
:1016100020F026173707480730F4621B730B840B42
:10162000202931294A2BA695179407942025312586
:101630004A2758F7660F771F881F20F026173707AD
:10164000480730F4620B730B840B200D311D411DD4
:10165000A09581F7B901842F9158880F96958795A9
:1016600008950E94040A880B990B08959F3F31F05A
:10167000915020F4879577956795B795880F911DC0
:101680009695879597F9089591505040660F771F6A
:10169000881FD2F7089597FB072E16F4009407D001
:1016A00077FD09D00E94810B07FC05D03EF4909590
:1016B00081959F4F0895709561957F4F0895A1E2A0
:1016C0001A2EAA1BBB1BFD010DC0AA1FBB1FEE1FBC
:1016D000FF1FA217B307E407F50720F0A21BB30B07
:1016E000E40BF50B661F771F881F991F1A9469F783
:1016F00060957095809590959B01AC01BD01CF01DF
:101700000895AA1BBB1B51E107C0AA1FBB1FA61748
:10171000B70710F0A61BB70B881F991F5A95A9F79A
:1017200080959095BC01CD010895EE0FFF1F0590A7
:10173000F491E02D099481E090E0F8940C94A00BD2
:04174000F894FFCF4B
:1017440010343034100000000020028D01B7016D08
:1017540002E801C601DA01000000000E048D01B6A2
:1017640003B5036E616E00696E66006F766600569F
:06177400313A200056008E
:00000001FF
